:020000040800F2
:1000000000000220BDEA00082D1E00082F1E000877
:10001000311E0008331E0008351E000800000000D5
:10002000000000000000000000000000A115010811
:10003000391E000800000000611601083D1E00087E
:100040000DEB00080DEB00080DEB00080DEB0008B0
:100050000DEB00080DEB00080DEB00080DEB0008A0
:10006000114B00080DEB00080DEB00080DEB00082C
:100070000DEB00080DEB00080DEB00080DEB000880
:100080000DEB00080DEB00080DEB00080DEB000870
:100090000DEB00080DEB00080DEB00080DEB000860
:1000A0000DEB00080DEB00080DEB00080DEB000850
:1000B0000DEB00080DEB00080DEB00080DEB000840
:1000C0000DEB00080DEB00080DEB00080DEB000830
:1000D0000DEB0008D9220008E52400080DEB00080C
:1000E0000DEB00080DEB00080DEB00080DEB000810
:1000F0000DEB00080DEB00080DEB00080DEB000800
:100100000DEB00080DEB00080DEB00080DEB0008EF
:100110000DEB00080DEB00085D4100080DEB000839
:100120000DEB00080DEB00080DEB00080DEB0008CF
:100130000DEB000800000000000000000DEB0008BF
:100140000DEB00080DEB00080DEB00080DEB0008AF
:100150000DEB00080DEB00080DEB00080DEB00089F
:100160000DEB00080DEB00080DEB00080DEB00088F
:100170000DEB00080DEB00080DEB0008000000007F
:10018000000000000DEB000800000000000000006F
:100190000DEB000800000000000000000DEB00085F
:1001A0000000000000000000000000000DEB00084F
:1001B0000DEB00080DEB00080DEB00080DEB00083F
:0401C0000DEB00083B
:1002000010B5054C237833B9044B13B10448AFF350
:1002100000800123237010BDC809002000000000E9
:10022000249A010808B5034B1BB103490348AFF3F7
:10023000008008BD00000000CC090020249A0108BD
:10024000154B002B08BF134B9D46A3F5803A0021A8
:100250008B460F461348144A121A14F007FB0F4B33
:10026000002B00D098470E4B002B00D09847002061
:10027000002104000D000D48002802D00C4816F0A3
:1002800043F914F0CFFA2000290001F061FB14F0CB
:10029000B9FA00BF000008000000000000000000E4
:1002A00000000000C80900203C3E0120096501084B
:1002B00059740108ECAD010800000020C8090020B5
:1002C000C80900203C3E012081F0004102E000BF4F
:1002D00083F0004330B54FEA41044FEA430594EA06
:1002E000050F08BF90EA020F1FBF54EA000C55EA41
:1002F000020C7FEA645C7FEA655C00F0E2804FEA12
:100300005454D4EB5555B8BF6D420CDD2C4480EAF3
:10031000020281EA030382EA000083EA010180EA23
:10032000020281EA0303362D88BF30BD11F0004F71
:100330004FEA01314FF4801C4CEA113102D04042A7
:1003400061EB410113F0004F4FEA03334CEA1333E2
:1003500002D0524263EB430394EA050F00F0A780FA
:10036000A4F10104D5F1200E0DDB02FA0EFC22FAF5
:1003700005F2801841F1000103FA0EF2801843FAE9
:1003800005F359410EE0A5F120050EF1200E012ADA
:1003900003FA0EFC28BF4CF0020C43FA05F3C01818
:1003A00051EBE37101F0004507D54FF0000EDCF191
:1003B000000C7EEB00006EEB0101B1F5801F1BD33A
:1003C000B1F5001F0CD349085FEA30004FEA3C0C3E
:1003D00004F101044FEA445212F5800F80F09A8034
:1003E000BCF1004F08BF5FEA500C50F1000041EB38
:1003F000045141EA050130BD5FEA4C0C404141EB3C
:10040000010111F4801FA4F10104E9D191F0000F62
:1004100004BF01460020B1FA81F308BF2033A3F1E5
:100420000B03B3F120020CDA0C3208DD02F1140CDC
:10043000C2F10C0201FA0CF021FA02F10CE002F117
:100440001402D8BFC2F1200C01FA02F120FA0CFC10
:10045000DCBF41EA0C019040E41AA2BF01EB045159
:10046000294330BD6FEA04041F3C1CDA0C340EDC57
:1004700004F11404C4F1200220FA04F001FA02F39A
:1004800040EA030021FA04F345EA030130BDC4F158
:100490000C04C4F1200220FA02F001FA04F340EA4D
:1004A0000300294630BD21FA04F0294630BD94F0FE
:1004B000000F83F4801306BF81F480110134013DE5
:1004C0004EE77FEA645C18BF7FEA655C29D094EA56
:1004D000050F08BF90EA020F05D054EA000C04BFD4
:1004E0001946104630BD91EA030F1EBF00210020BF
:1004F00030BD5FEA545C05D14000494128BF41F05E
:10050000004130BD14F580043CBF01F5801130BDC1
:1005100001F0004545F0FE4141F470014FF000004C
:1005200030BD7FEA645C1ABF194610467FEA655CFD
:100530001CBF0B46024650EA013406BF52EA03359F
:1005400091EA030F41F4002130BD00BF90F0000F8D
:1005500004BF0021704730B54FF4806404F13204C9
:100560004FF000054FF0000150E700BF90F0000F82
:1005700004BF0021704730B54FF4806404F13204A9
:1005800010F0004548BF40424FF000013EE700BF79
:1005900042004FEAE2014FEA31014FEA02701FBF09
:1005A00012F07F4393F07F4F81F06051704732F03B
:1005B0007F4208BF704793F07F4F04BF41F4002192
:1005C000704730B54FF4607401F0004521F00041F0
:1005D0001CE700BF50EA010208BF704730B54FF07A
:1005E00000050AE050EA010208BF704730B511F07B
:1005F000004502D5404261EB41014FF4806404F1B3
:1006000032045FEA915C3FF4D8AE4FF003025FEA38
:10061000DC0C18BF03325FEADC0C18BF033202EBBC
:10062000DC02C2F1200300FA03FC20FA02F001FA16
:1006300003FE40EA0E0021FA02F11444BDE600BFB9
:1006400070B54FF0FF0C4CF4E06C1CEA11541DBF68
:100650001CEA135594EA0C0F95EA0C0F00F0DEF833
:100660002C4481EA030621EA4C5123EA4C5350EA18
:10067000013518BF52EA033541F4801143F4801369
:1006800038D0A0FB02CE4FF00005E1FB02E506F0FA
:100690000042E0FB03E54FF00006E1FB03569CF04F
:1006A000000F18BF4EF0010EA4F1FF04B6F5007F55
:1006B00064F5407404D25FEA4E0E6D4146EB0606C7
:1006C00042EAC62141EA55514FEAC52040EA5E5050
:1006D0004FEACE2EB4F1FD0C88BFBCF5E06F1ED8FA
:1006E000BEF1004F08BF5FEA500E50F1000041EB31
:1006F000045170BD06F0004646EA010140EA0200DE
:1007000081EA0301B4EB5C04C2BFD4EB0C0541EAFF
:10071000045170BD41F480114FF0000E013C00F314
:10072000AB8014F1360FDEBF002001F0004170BD38
:10073000C4F10004203C35DA0C341BDC04F1140451
:10074000C4F1200500FA05F320FA04F001FA05F2DD
:1007500040EA020001F0004221F0004110EBD370AA
:1007600021FA04F642EB06015EEA430E08BF20EAD6
:10077000D37070BDC4F10C04C4F1200500FA04F379
:1007800020FA05F001FA04F240EA020001F000410B
:1007900010EBD37041F100015EEA430E08BF20EA7E
:1007A000D37070BDC4F1200500FA05F24EEA020EC6
:1007B00020FA04F301FA05F243EA020321FA04F0F5
:1007C00001F0004121FA04F220EA020000EBD370AC
:1007D0005EEA430E08BF20EAD37070BD94F0000FAC
:1007E0000FD101F00046400041EB010111F4801FE0
:1007F00008BF013CF7D041EA060195F0000F18BF91
:10080000704703F00046520043EB030313F4801FCC
:1008100008BF013DF7D043EA0603704794EA0C0F86
:100820000CEA135518BF95EA0C0F0CD050EA41069C
:1008300018BF52EA4306D1D181EA030101F0004119
:100840004FF0000070BD50EA410606BF1046194641
:1008500052EA430619D094EA0C0F02D150EA01364D
:1008600013D195EA0C0F05D152EA03361CBF10468E
:1008700019460AD181EA030101F0004141F0FE412D
:1008800041F470014FF0000070BD41F0FE4141F4B1
:10089000780170BD70B54FF0FF0C4CF4E06C1CEAB1
:1008A00011541DBF1CEA135594EA0C0F95EA0C0F66
:1008B00000F0A7F8A4EB050481EA030E52EA033521
:1008C0004FEA013100F088804FEA03334FF0805542
:1008D00045EA131343EA12634FEA022245EA11156F
:1008E00045EA10654FEA00260EF000419D4208BF20
:1008F000964244F1FD0404F5407402D25B084FEACD
:100900003202B61A65EB03055B084FEA32024FF478
:1009100080104FF4002CB6EB020E75EB030E22BFD5
:10092000B61A754640EA0C005B084FEA3202B6EB95
:10093000020E75EB030E22BFB61A754640EA5C0044
:100940005B084FEA3202B6EB020E75EB030E22BFD4
:10095000B61A754640EA9C005B084FEA3202B6EBD5
:10096000020E75EB030E22BFB61A754640EADC0094
:1009700055EA060E18D04FEA051545EA16754FEAF6
:1009800006164FEAC30343EA52734FEAC2025FEA14
:100990001C1CC0D111F4801F0BD141EA00014FF0A3
:1009A00000004FF0004CB6E711F4801F04BF014374
:1009B0000020B4F1FD0C88BFBCF5E06F3FF6AFAE90
:1009C000B5EB030C04BFB6EB020C5FEA500C50F120
:1009D000000041EB045170BD0EF0004E4EEA1131A3
:1009E00014EB5C04C2BFD4EB0C0541EA045170BDAA
:1009F00041F480114FF0000E013C90E645EA060EEE
:100A00008DE60CEA135594EA0C0F08BF95EA0C0F1B
:100A10003FF43BAF94EA0C0F0AD150EA01347FF463
:100A200034AF95EA0C0F7FF425AF104619462CE73A
:100A300095EA0C0F06D152EA03353FF4FDAE10469D
:100A4000194622E750EA410618BF52EA43067FF4EE
:100A5000C5AE50EA41047FF40DAF52EA43057FF47E
:100A6000EBAE12E74FF0FF3C06E000BF4FF0010C89
:100A700002E000BF4FF0010C4DF804CD4FEA410CED
:100A80007FEA6C5C4FEA430C18BF7FEA6C5C1BD0BA
:100A900001B050EA410C0CBF52EA430C91EA030F3B
:100AA00002BF90EA020F0020704710F1000F91EA98
:100AB000030F58BF994208BF90422CBFD8176FEA66
:100AC000E37040F0010070474FEA410C7FEA6C5C34
:100AD00002D150EA013C07D14FEA430C7FEA6C5C3B
:100AE000D6D152EA033CD3D05DF8040B704700BF67
:100AF0008446104662468C461946634600E000BFB5
:100B000001B5FFF7B7FF002848BF10F1000F01BD86
:100B10004DF808EDFFF7F4FF0CBF012000205DF851
:100B200008FB00BF4DF808EDFFF7EAFF34BF0120D6
:100B300000205DF808FB00BF4DF808EDFFF7E0FF6F
:100B400094BF012000205DF808FB00BF4DF808EDC0
:100B5000FFF7CEFF94BF012000205DF808FB00BF27
:100B60004DF808EDFFF7C4FF34BF012000205DF809
:100B700008FB00BF4FEA410C7FEA6C5C02D150EAEF
:100B8000013C0AD14FEA430C7FEA6C5C02D152EA85
:100B9000033C02D14FF0000070474FF00100704756
:100BA0004FEA410212F5001215D211D56FF4787395
:100BB000B3EB625212D94FEAC12343F0004343EA38
:100BC000505311F0004F23FA02F018BF4042704713
:100BD0004FF00000704750EA013005D111F000409D
:100BE00008BF6FF0004070474FF00000704700BF33
:100BF0004A0011D212F5001211D20DD56FF478739C
:100C0000B3EB62520ED44FEAC12343F0004343EAF0
:100C1000505323FA02F070474FF00000704750EA3B
:100C2000013002D14FF0FF3070474FF000007047A5
:100C30004FEA4102B2F1E04324BFB3F5001CDCF1FE
:100C4000FE5C0DD901F0004C4FEAC0024CEA507036
:100C5000B2F1004F40EB830008BF20F00100704765
:100C600011F0804F21D113F13872BCBF01F0004068
:100C7000704741F480114FEA5252C2F11802C2F19A
:100C8000200C10FA0CF320FA02F018BF40F001001B
:100C90004FEAC1234FEAD32303FA0CFC40EA0C00CD
:100CA00023FA02F34FEA4303CCE77FEA625307D10A
:100CB00050EA01331EBF4FF0FE4040F44000704741
:100CC00001F0004040F0FE4040F40000704700BFDB
:100CD00080F0004002E000BF81F0004142001FBFF1
:100CE0005FEA410392EA030F7FEA226C7FEA236CFA
:100CF0006AD04FEA1262D2EB1363C1BFD2184140EF
:100D000048404140B8BF5B42192B88BF704710F084
:100D1000004F40F4000020F07F4018BF404211F027
:100D2000004F41F4000121F07F4118BF494292EA8F
:100D3000030F3FD0A2F1010241FA03FC10EB0C00BB
:100D4000C3F1200301FA03F100F0004302D5494248
:100D500060EB4000B0F5000F13D3B0F1807F06D3F5
:100D600040084FEA310102F10102FE2A51D2B1F1ED
:100D7000004F40EBC25008BF20F0010040EA0300E2
:100D80007047490040EB000010F4000FA2F101028F
:100D9000EDD1B0FA80FCACF1080CB2EB0C0200FA19
:100DA0000CF0AABF00EBC25052421843BCBFD04067
:100DB0001843704792F0000F81F4000106BF80F4E1
:100DC00000000132013BB5E74FEA41037FEA226CA4
:100DD00018BF7FEA236C21D092EA030F04D092F06F
:100DE000000F08BF0846704790EA010F1CBF0020A3
:100DF000704712F07F4F04D1400028BF40F0004000
:100E0000704712F100723CBF00F50000704700F01F
:100E1000004343F0FE4040F4000070477FEA226246
:100E200016BF08467FEA23630146420206BF5FEA17
:100E3000412390EA010F40F4800070474FF0000317
:100E400004E000BF10F0004348BF40425FEA000CDE
:100E500008BF704743F0964301464FF000001CE086
:100E600050EA010208BF70474FF000030AE000BFDC
:100E700050EA010208BF704711F0004302D540421A
:100E800061EB41015FEA010C02BF8446014600208C
:100E900043F0B64308BFA3F18053A3F50003BCFAA7
:100EA0008CF2083AA3EBC25310DB01FA02FC634454
:100EB00000FA02FCC2F12002BCF1004F20FA02F25B
:100EC00043EB020008BF20F00100704702F120024E
:100ED00001FA02FCC2F1200250EA4C0021FA02F2AF
:100EE00043EB020008BF20EADC7070477BB972B99F
:100EF0000029BEBF00204FF0004106E008BF0028D7
:100F00001CBF6FF000414FF0FF3000F0BDB9ADF1F4
:100F1000080C6DE904CE002909DB002B1ADB00F078
:100F20004DF8DDF804E0DDE9022304B070474042EB
:100F300061EB4101002B1BDB00F040F8DDF804E021
:100F4000DDE9022304B0404261EB4101524263EB10
:100F500043037047524263EB430300F02FF8DDF880
:100F600004E0DDE9022304B0404261EB4101704737
:100F7000524263EB430300F021F8DDF804E0DDE9C1
:100F8000022304B0524263EB4303704753B94AB99A
:100F9000002908BF00281CBF4FF0FF314FF0FF3081
:100FA00000F072B9ADF1080C6DE904CE00F006F85E
:100FB000DDF804E0DDE9022304B070472DE9F047D5
:100FC000089E04468846002B4BD18A42154667D9B5
:100FD000B2FA82F24AB1C2F1200701FA02F320FA12
:100FE00007F7954047EA030894404FEA154E230C53
:100FF000B8FBFEF71FFA85FC0EFB178843EA08438F
:1010000007FB0CF1994209D9EB1807F1FF3080F08A
:101010001B81994240F21881023F2B445B1AA4B213
:10102000B3FBFEF00EFB103344EA034400FB0CFC60
:10103000A44509D92C1900F1FF3380F00781A4459C
:1010400040F2048102382C4440EA0740A4EB0C042F
:1010500000271EB1D4400023C6E900433946BDE84D
:10106000F0878B4209D9002E00F0EB800027C6E9FB
:10107000000138463946BDE8F087B3FA83F7002F00
:1010800047D18B4202D3824200F2FA80841A61EB8C
:10109000030301209846002EE0D0C6E90048DDE7B2
:1010A00002B9FFDEB2FA82F2002A40F08F80491BBB
:1010B0004FEA154E1FFA85F80127B1FBFEFC230C01
:1010C0000EFB1C1143EA014308FB0CF1994207D9BE
:1010D000EB180CF1FF3002D2994200F2CD80844629
:1010E000591AA3B2B1FBFEF00EFB101443EA0444FC
:1010F00008FB00F8A04507D92C1900F1FF3302D2F4
:10110000A04500F2B6801846A4EB080440EA0C4063
:101110009FE7C7F1200CBB4022FA0CFE4EEA030EFB
:1011200001FA07F420FA0CF521FA0CF34FEA1E48F5
:101130002543B3FBF8F92C0C08FB19331FFA8EFA80
:1011400044EA034309FB0AF49C4202FA07F200FA5C
:1011500007F10BD91EEB030309F1FF3080F0878004
:101160009C4240F28480A9F1020973441B1BADB27A
:10117000B3FBF8F008FB103345EA034400FB0AFA1E
:10118000A24508D91EEB040400F1FF336BD2A2453F
:1011900069D90238744440EA0940A0FB0289A4EBF3
:1011A0000A044C45C2464B4654D351D0002E69D058
:1011B000B1EB0A0564EB030404FA0CFCFD40FC40AF
:1011C0004CEA0505C6E90054002747E7C2F12003B1
:1011D00020FA03F7954001FA02F021FA03F34FEAEF
:1011E000154E3843010CB3FBFEF71FFA85F80EFBD2
:1011F000173341EA034107FB08F38B4204FA02F478
:1012000007D9691807F1FF3C2FD28B422DD9023F35
:101210002944CB1A81B2B3FBFEF00EFB103341EA36
:10122000034100FB08F38B4207D9691800F1FF3C2A
:1012300017D28B4215D902382944C91A40EA074708
:101240003BE73746304609E70746E7E61846FBE640
:101250004145ABD2B8EB020A69EB0E0201381346E6
:10126000A4E76046E9E7184695E76746D1E7814677
:101270007CE702382C4447E7ACF1020C2B442FE703
:10128000384608E73746E9E6704700BF844641EA3A
:10129000000313F003036DD1403A41D351F8043BEE
:1012A00040F8043B51F8043B40F8043B51F8043B40
:1012B00040F8043B51F8043B40F8043B51F8043B30
:1012C00040F8043B51F8043B40F8043B51F8043B20
:1012D00040F8043B51F8043B40F8043B51F8043B10
:1012E00040F8043B51F8043B40F8043B51F8043B00
:1012F00040F8043B51F8043B40F8043B51F8043BF0
:1013000040F8043B51F8043B40F8043B51F8043BDF
:1013100040F8043B51F8043B40F8043B403ABDD24E
:10132000303211D351F8043B40F8043B51F8043BF0
:1013300040F8043B51F8043B40F8043B51F8043BAF
:1013400040F8043B103AEDD20C3205D351F8043B7F
:1013500040F8043B043AF9D2043208D0D2071CBF4B
:1013600011F8013B00F8013B01D30B880380604674
:10137000704700BF082A13D38B078DD010F00303EA
:101380008AD0C3F10403D21ADB071CBF11F8013B5A
:1013900000F8013B80D331F8023B20F8023B7BE7A9
:1013A000043AD9D3013A11F8013B00F8013BF9D2D4
:1013B0000B7803704B7843708B788370604670476E
:1013C00090F800F06DE9024520F007016FF0000C85
:1013D00010F0070491F820F040F049804FF000042D
:1013E0006FF00700D1E9002391F840F000F1080008
:1013F00082FA4CF2A4FA8CF283FA4CF3A2FA8CF340
:101400004BBBD1E9022382FA4CF200F10800A4FAA6
:101410008CF283FA4CF3A2FA8CF3E3B9D1E90423FA
:1014200082FA4CF200F10800A4FA8CF283FA4CF331
:10143000A2FA8CF37BB9D1E9062301F1200182FAEB
:101440004CF200F10800A4FA8CF283FA4CF3A2FAF1
:101450008CF3002BC6D0002A04BF04301A4612BAFF
:10146000B2FA82F2FDE8024500EBD2007047D1E902
:10147000002304F00305C4F100004FEAC50514F091
:10148000040F91F840F00CFA05F562EA05021CBF62
:1014900063EA050362464FF00004A9E7000000007C
:1014A00001F0FF01102A2BDB10F0070F08D010F815
:1014B000013B013A8B422DD010F0070F42B3F6D119
:1014C000F0B441EA012141EA014122F007047FF032
:1014D00000070023F0E80256083C85EA010586EA89
:1014E000010685FA47F5A3FA87F586FA47F6A5FAC5
:1014F00087F68EB9EED1F0BC01F0FF0102F00702D1
:1015000032B110F8013B013A83EA010313B1F8D17B
:101510000020704701387047002D06BF354603385C
:10152000073815F0010F07D1013015F4807F02BF95
:10153000013015F4C03F0130F0BC0138704700BFE6
:10154000A2EB0300704700BF02780B78012A28BF86
:101550009A42F5D16DE9044540EA0104CDE90267FC
:101560006FF0000C4FEA447212B380EA010414F0E9
:10157000070F6AD100F0070420F0070004F003050C
:1015800021F007014FEAC505F0E8042314F0040F29
:10159000F1E804670CFA05F462EA040266EA04065C
:1015A0000AD063EA0403624667EA0407664603E07A
:1015B000F0E80423F1E8046782FA4CF582EA0604B5
:1015C000A4FA8CF46CBB83FA4CF583EA0705A5FA00
:1015D0008CF595B950E9022351E9026782FA4CF57E
:1015E00082EA0604A4FA8CF483FA4CF583EA070530
:1015F000A5FA8CF52543DBD09CB92DBAB5FA85F454
:1016000024F0070427FA04F1DDE9026723FA04F362
:1016100003F0FF0001F0FF01FDE80445A0EB01002D
:10162000704724BAB4FA84F424F0070426FA04F1CB
:10163000DDE9026722FA04F202F0FF0001F0FF0187
:10164000FDE80445A0EB0100704714F0030F3CD106
:1016500010F0030428D150F8082B51F8083B82FA07
:101660004CF582EA0305A5FA8CF55DB950F8042C17
:1016700051F8043C82FA4CF582EA0305A5FA8CF590
:10168000002DE8D02DBAB5FA85F424F0070423FA2A
:1016900004F122FA04F202F0FF0001F0FF01FDE87C
:1016A0000445A0EB010070474FEAC40420F003009A
:1016B00050F8082B21F0030151F8083B0CFA04F410
:1016C00062EA040263EA0403C9E710F003041AD0D3
:1016D000A1EB040120F00300E40750F8042B06D02E
:1016E0000FD28B785FFAA2F4E41A06D12BB1CB7833
:1016F0005FFAB2F4E41A00D11BB920465DF8104B32
:10170000704701F1040150F8042BCC0721F00301CC
:1017100051F8043B48D824D222F07F4482FA4CF599
:1017200094EA1325A5FA8CF50AD165B951F8043B62
:1017300084EA0204B4EB036F0ED150F8042BEBE7FC
:101740004FEA132355E035F07F454DD10878FDE889
:101750000445C0F1000070474FEA126203F0FF0336
:1017600047E002EA1C4482FA4CF594EA1345A5FAD4
:101770008CF50AD165B951F8043B84EA0204B4EB54
:10178000034F0CD150F8042BEBE74FEA134330E042
:1017900015EA1C4528D10B884FEA124229E04FEA8E
:1017A000124203EA1C4324E002F0FF0482FA4CF5E3
:1017B00094EA1365A5FA8CF50AD165B951F8043B92
:1017C00084EA0204B4EB032F09D150F8042BEBE7B1
:1017D0004FEA13630DE015F0FF0F05D10B684FEAD8
:1017E000122223F07F4304E04FF00000FDE804459F
:1017F000704712BA1BBA82FA4CF482EA0304A4FAC4
:101800008CF5B5FA85F402FA04F203FA04F34FEA10
:101810001260FDE80445A0EB1360704700B51A4A5A
:101820008BB010685168127A02AB03C300251A709E
:10183000164B0195196B164841F0010119631B6B9A
:1018400003F0010301932024019B0123CDE905430B
:10185000079305A90223089306F076FE2A4621463F
:101860000B480C4D0A4C06F0E3FF02A96423092241
:1018700028460BF089FC4FF47A7005F00BF9202113
:10188000204606F0DAFFF0E78C9A010800380240A3
:1018900000000240443B012010B594B00023204AD0
:1018A0000093116C41F080511164126C02F080526F
:1018B0000092009A1B4A0193116841F44041116063
:1018C0001268022402F44042CDE90D434FF4B47390
:1018D00007200192CDE910340623019A07941022C3
:1018E0000121CDE9120307A8CDE90A120F9206F0F3
:1018F000D7F808B1FFF792FF06F07CFD0028F9D178
:101900000F23CDE902344FF4A0530490CDE9053004
:10191000052102A805F03AFB0028EBD114B010BD58
:10192000003802400070004070B5054600242B5D71
:1019300001340A2BE4B2FAD10EF068F922462946A6
:1019400064230248BDE870400BF01EBC443B0120FC
:1019500070B59D4B96B003AA03F11806154618689A
:101960005968144603C40833B3422246F7D11B8892
:10197000238005F067F8FFF78FFF00F06BFA08B9D6
:10198000FFF74CFF00F08AFF0028F9D000F0B6FB0B
:101990000028F5D100F0BEFC0028F1D164231A2202
:1019A00029468A480BF0F0FB02F0F2FB98B9884B0D
:1019B0000AAC03F1100518685968224603C20833BF
:1019C000AB421446F7D10AA8FFF7FAFCC1B20AA845
:1019D000FFF7AAFFD4E77F4B0AAA03F108051868AE
:1019E0005968144603C40833AB422246F7D199889C
:1019F00018689B792060A180A3710AA8FFF7E0FC1A
:101A0000C1B20AA8FFF790FF02F0E4FA70B1724B7E
:101A10000AAA03F1100518685968144603C408336C
:101A2000AB422246F7D118681060CCE76B4B0AAA8C
:101A300003F1100518685968144603C40833AB4213
:101A40002246F7D119889B78A37021800AA8FFF756
:101A5000B7FCC1B20AA8FFF767FF02F053FB04F01E
:101A60001BFF70B15E4B0AAA03F110051868596894
:101A7000144603C40833AB422246F7D11B882380A7
:101A8000A1E7584B0AAA03F11005186859681446D3
:101A900003C40833AB422246F7D11B7823700AA84F
:101AA000FFF78EFCC1B20AA8FFF73EFF04F080FFEB
:101AB00000F02CFF80B14C4B0AAA03F11005186806
:101AC0005968144603C40833AB422246F7D119883B
:101AD0009B782180A37076E7444B0AAA03F1100596
:101AE00018685968144603C40833AB422246F7D13C
:101AF00019889B782180A3700AA8FFF761FCC1B206
:101B00000AA8FFF711FF01F0CBF970B1384B0AAA10
:101B100003F1100518685968144603C40833AB4232
:101B20002246F7D11B7823704DE7324B0AAA03F106
:101B3000100518685968144603C40833AB4222469E
:101B4000F7D11B7823700AA8FFF73AFCC1B20AA8A4
:101B5000FFF7EAFE02F004F860B9274B0AAC03F184
:101B6000180518685968224603C20833AB42144668
:101B7000F7D128E7214B0AAC03F11805186859681A
:101B8000224603C20833AB421446F7D10AA8FFF736
:101B900017FCC1B20AA8FFF7C7FE02F0CFFC88BB52
:101BA000174B0AAA03F1080518685968144603C4BC
:101BB0000833AB422246F7D1186899889B79206098
:101BC000A180A371FFE600BFF39A0108443B012006
:101BD0000D9B01081D9B01082C9B0108409B0108DF
:101BE000539B0108659B0108769B0108899B0108AE
:101BF0009C9B0108AD9B0108BE9B0108D69B010878
:101C0000EE9B0108734B0AAA03F10805186859688E
:101C1000144603C40833AB422246F7D118689B88A8
:101C2000A38020600AA8FFF7CBFB0024C1B20425E3
:101C30000AA8FFF779FECDE9005423464FF49672C7
:101C4000654966480DF054F8012810D0644B0AAA83
:101C500003F1180518685968144603C40833AB42E9
:101C60002246F7D118689B8810609380ABE6CDE9D7
:101C7000005423464FF496725A495B480DF038F8E9
:101C800001280CD0594B0AAA03F1180518685968A5
:101C9000144603C40833AB422246F7D1E2E70323DC
:101CA0000093019423464FF49672514951480DF028
:101CB0001FF801287FF464AE0525019400952346A2
:101CC0004FF496724C494D480DF012F801280CD093
:101CD0004B4B0AAA03F1180518685968144603C447
:101CE0000833AB422246F7D19DE6CDE900542346A6
:101CF0004FF49672434944480CF0FAFF012812D081
:101D0000424B0AAC03F1300518685968224603C2F9
:101D10000833AB421446F7D10AA8FFF751FBC1B212
:101D20000AA8FFF701FE05230024CDE900344FF493
:101D300096722346364937480CF0DAFF012810D056
:101D4000354B0AAA03F1180518685968144603C4EC
:101D50000833AB422246F7D118681B792060237103
:101D600031E604230093019423464FF496722B49E5
:101D70002B480CF0BDFF01280CD02A4B0AAA03F116
:101D8000180518685968144603C40833AB42224644
:101D9000F7D167E70DF064FA234B0AAA03F118059F
:101DA00018685968144603C40833AB422246F7D179
:101DB000998818689B792060A180A3710AA8FFF711
:101DC000FFFAC1B20AA8FFF7AFFD4FF47A7004F032
:101DD00061FEE1E7FD9B0108959A01086522000874
:101DE0000B9C0108A09A010871240008299C010895
:101DF000AB9A01087D2D0008B89A0108294900080E
:101E0000479C0108C19A010899430008639C010896
:101E1000DE9A0108AD630008939C0108E89A010866
:101E20005D370008B09C0108CE9C01087047FEE7B2
:101E3000FEE7FEE7FEE770477047704708B50DF014
:101E4000E5FE012801D00FF03DFCBDE8084004F09C
:101E500013BE00002DE9F04F99B0A14CDFF890823D
:101E6000DFF890B2DFF890A200260396236B43F0D0
:101E700001032363236B03F001030393039B049685
:101E8000236B43F002032363236B03F002030493E9
:101E9000049B0596236B43F004032363236B03F039
:101EA00004030593059B0696236B43F00803236305
:101EB000236B03F008030693069B0796236B43F0FE
:101EC00010032363236B03F0100307934FF0030900
:101ED000079B13A94FF6FF734046CDE9133906F06F
:101EE00033FB13A9584606F02FFB13A9504606F002
:101EF0002BFB13A97B4806F027FB13A97A4806F0B1
:101F000023FB0896236B43F001032363236B03F049
:101F100001030893022501270722089B17924FF41B
:101F2000C06313A94046CDE913350192CDE915757B
:101F300006F00AFB0996236B3B432363236B019A4C
:101F400017923B400993099B13A90C234046CDE906
:101F50001335CDE9157506F0F7FA0A96236B2B4376
:101F60002363236B17952B400A930A9B13A93023F5
:101F70005846CDE91335CDE9157506F0E5FA0B960F
:101F8000236B2B432363236B17952B400B930B9BE6
:101F900013A9C0235846CDE91335CDE9157506F0D0
:101FA000D3FA0C96236B3B432363236B15963B407C
:101FB0000C9313A940460C9BCDE9139906F0C4FA83
:101FC0000D96236B3B432363236B3B400D930D9B8B
:101FD00013A94FF4106340461393CDE91455CDE98E
:101FE000165706F0B1FA0E96236B43F004032363F1
:101FF000236B169503F004030E930E9B13A91B236A
:1020000050461393CDE9147506F09EFA242313A9C4
:1020100050461393CDE91466169506F095FA0F967F
:10202000236B3B432363236B3B400F930F9BE023C6
:10203000CDE9133513A9052340461793CDE915695A
:1020400006F082FA102313A94046139301931497C4
:10205000CDE9157906F078FA019B3A4619464046D3
:1020600006F0E6FB1096236B2B432363236B2B4078
:102070001093109B1D4B042213A95846CDE913233E
:10208000CDE9155906F060FA1196236B43F004036D
:102090002363236B03F004031193119B13A94FF4E3
:1020A000707350461393CDE91455CDE9165906F0D7
:1020B0004BFA1296236B3B432363236B3B401293F3
:1020C000129B40464FF4004313A9CDE91455CDE9C6
:1020D0001657139306F038FA384619B0BDE8F08F5A
:1020E00000380240000C02400010024000001110B5
:1020F00000000240000402400008024037B50023FF
:102100001F4A0193516C1F4C41F010015164526CF5
:102110001D49236102F010020192019AA3614FF45C
:10212000E132C4E9001220460C22C4E902336261A4
:10213000E3610AF02BFF054618B14FF0FF3003B002
:1021400030BD0246012180200EF02EF90F4B1860A1
:102150000028F2D02A46012180200EF025F90C4BF0
:1021600018600028E9D02A4625200A2105F088FEBB
:102170002268D36843F02003D3602846DFE700BF1E
:1021800000380240043B012000100140EC0900200F
:10219000E809002010B50F4B0F4C5A6A42F01002AC
:1021A0005A625A6A22F010025A624FF400712046B5
:1021B00006F0A4FA4FF48061204606F09FFA25202D
:1021C00005F09EFE054B1A68D36823F02003D36008
:1021D00010BD00BF0038024000000240043B012057
:1021E00008B50A466423014601480AF0CDFF08BD40
:1021F000043B012008B50A466423014601480BF060
:102200001DF808BD043B012010B5074C0246131A07
:10221000DBB2994200D810BD23681B06FCD512F82A
:10222000013B6360F3E700BF001001402DE9F0417E
:10223000DFF82C8007460E460024B442E5B201D1F7
:10224000002509E0391900230A22D8F800000EF011
:10225000EDF801340028F0D12846BDE8F08100BF38
:10226000EC09002070B50024A2B08022214602A80B
:102270008DF8074012F0FAFA144D154E2868002226
:102280000DF107010EF06AFA0128024605D1642318
:102290000DF1070130460AF077FF02AB19190D4B1B
:1022A000002218680EF05AFA01280AD122AB234402
:1022B00013F8803C0A2B02D00134E4B2DEE700249C
:1022C000DCE70A200DF0A2F9D8E700BFEC090020F6
:1022D000043B0120E809002007B50B4B1B681A6876
:1022E00092060DD509495A680A706FF020021A60EB
:1022F000074802AA002342F8043D00680EF078F96E
:1023000003B05DF804FB00BF043B0120E40900209A
:10231000E809002037B500231F4A0193116C1F4CB8
:1023200041F400311164126C1D49236102F4003242
:102330000192019AA3614FF4E132C4E900122046F0
:102340000C22C4E902336261E3610AF01FFE054614
:1023500018B14FF0FF3003B030BD0246012180209C
:102360000EF022F80F4B18600028F2D02A46012107
:1023700080200EF019F80C4B18600028E9D02A468E
:1023800026200B2105F07CFD2268D36843F0200352
:10239000D3602846DFE700BF00380240443B0120FD
:1023A00000440040F8090020F409002010B50C4B4F
:1023B0000C4C1A6A42F400321A621A6A22F4003291
:1023C0001A620421204606F099F90821204606F0F9
:1023D00095F9054B1A68D36823F02003D36010BD2C
:1023E0000038024000000240443B012008B50A4684
:1023F0006423014601480AF0C7FE08BD443B0120A2
:1024000008B50A466423014601480AF017FF08BDD3
:10241000443B012010B5074C0246131ADBB2994227
:1024200000D810BD23681B06FCD512F8013B636081
:10243000F3E700BF004400402DE9F041DFF82C80B5
:1024400007460E460024B442E5B201D1002509E05A
:10245000391900230A22D8F800000DF0E7FF0134F3
:102460000028F0D12846BDE8F08100BFF80900201F
:1024700070B50024A2B08022214602A88DF8074042
:1024800012F0F4F9144D154E286800220DF10701E1
:102490000EF064F90128024605D164230DF107010D
:1024A00030460AF071FE02AB19190D4B0022186874
:1024B0000EF054F901280AD122AB234413F8803CD2
:1024C0000A2B02D00134E4B2DEE70024DCE70A2064
:1024D0000DF09CF8D8E700BFF8090020443B01202C
:1024E000F409002007B50B4B1B681A6892060DD53E
:1024F00009495A680A706FF020021A60074802AA58
:10250000002342F8043D00680EF072F803B05DF855
:1025100004FB00BF443B0120F0090020F409002027
:1025200070B58CB000232B4A0093516C2A4C41F0BB
:1025300002015164526C2949A36002F00202009228
:10254000009A6361B322C4E90012204644F61F6278
:10255000C4E9032307F01AFED0B1214B01AA03F10D
:102560002006154618685968144603C40833B34258
:102570002246F7D119889B782180A3702846FEF760
:102580001FFFC1B22846FFF7CFF900200CB070BD85
:10259000144960230B608860C1E90400C860886149
:1025A00040F2DC530C2220464B6007F0BDFF78B1AF
:1025B0000D4B01AA03F12806154618685968144600
:1025C00003C40833B3422246F7D118682060D5E728
:1025D0000120DBE700380240180A00200004014017
:1025E000ED9C0108FC090020109D0108DFED067A32
:1025F0009FED067A60EE277A87EE870ADFED047A90
:1026000030EE270A704700BF0000FA440000344350
:102610000000FA43DFED067A30EE670ADFED057A57
:1026200020EE270ADFED047A80EE270A704700BF0C
:102630000000FA43000034430000FA4470B50C4631
:102640001A498EB048602246194807F06DFFC0B1A4
:10265000184B01AA03F1300615461868596814464C
:1026600003C40833B3422246F7D11B7813702846BF
:10267000FEF7A6FEC1B22846FFF756F900200EB0BD
:1026800070BD21460A4808F063F868B10A4B01AAF8
:1026900003F12806154618685968144603C4083320
:1026A000B3422246F7D1E0E70120E8E7FC09002029
:1026B000180A00203C9D01086D9D0108DFED247A79
:1026C0009FED247A244920EE270A70B5C0EE077AE0
:1026D0008EB00446024621489FED217A77EE877A34
:1026E000FCEEE77A17EE903A9BB24B6007F01CFFC6
:1026F000C0B11C4B01AA03F1300615461868596891
:10270000144603C40833B3422246F7D11B78137032
:102710002846FEF755FEC1B22846FFF705F900200E
:102720000EB070BD21460D4808F012F868B10E4B8E
:1027300001AA03F12806154618685968144603C40F
:102740000833B3422246F7D1E0E70120E8E700BFB3
:102750000000FA4400003443FC090020180A00205D
:102760000000FA433C9D01086D9D010870B52DEDF8
:10277000048B8AB0FFF7D4FEC8B9424B01AC03F119
:10278000100518685968224603C20833AB42144644
:10279000F7D101A8FEF714FEC1B201A8FFF7C4F8F3
:1027A00000200CF091FB0AB0BDEC048B70BD364BE1
:1027B00001AC03F1100518685968224603C20833BA
:1027C000AB421446F7D101A8FEF7FAFDC1B201A849
:1027D000FFF7AAF89FED2D8A9FED2D9A0124F7EEC1
:1027E000008A012C0CBF38EE288A38EE688AB4EED5
:1027F000C98AF1EE10FA33DAB5EE408AF1EE10FA3A
:1028000098BF0124B0EE480A0020FFF757FFB0EE52
:10281000480A0420FFF752FFB0EE480A0820FFF7ED
:102820004DFF0C20B0EE480AFFF748FFD0B9194B16
:1028300001AA03F1200618685968154603C5083334
:10284000B3422A46F7D11B882B8001A8FEF7B8FDBA
:10285000C1B201A8FFF768F864200CF0D7FEC0E70A
:102860000024CFE70C4B01AA03F120061868596831
:10287000154603C50833B3422A46F7D11B782B709F
:10288000E3E700BF969D0108A69D01080000B44241
:1028900000003443B69D0108D89D010810B586B0EC
:1028A000002300930C4B0D481A6B42F004021A638C
:1028B0001B6B03F004030093009B06A902230493FF
:1028C0004FF46043012441F8143DCDE9024405F082
:1028D0003BFE204606B010BD003802400008024012
:1028E00001460022014805F0A3BF00BF00080240D6
:1028F00001460122014805F09BBF00BF00080240CD
:102900000146014805F099BF000802402DE9F04753
:10291000002290B00C2101200DF046FD594B1860AB
:10292000D8B9594B02AA03F1300518685968144602
:1029300003C40833AB422246F7D118689B88206055
:10294000A38002A8FEF73CFDC1B202A8FEF7ECFF8F
:102950004FF0FF3010B0BDE8F0874C4B02AA03F1F6
:10296000300518685968144603C40833AB42224640
:10297000F7D118681B792371206002A8FEF720FDAB
:10298000C1B202A8FEF7D0FF414CDFF82C914149BB
:10299000DFF828A100230193226C42F00202226496
:1029A000226CC9F8083002F00202012501924FF6AC
:1029B000FF7703264846019AC9F81430C9E900A3F5
:1029C000C9E90373C1E90063C1E90253C1E90433F2
:1029D000C1E906530B6207F031FC0028B8D12E4B39
:1029E0004FF4FA48A3F80080CAF8248001F042FBB3
:1029F00000234FF47A72FEF7C9FA284B04211860BD
:102A0000484606F070FD0028A2D10290236C2449AC
:102A1000DFF8AC9043F004032364236C214C08627C
:102A200003F004030293C4E90090C4E90370A060BA
:102A30006061C1E90060C1E90250C1E90400C1E977
:102A400006502046029B07F0F9FB002880D1164B68
:102A5000A3F80080C9F8248001F00CFB00234FF498
:102A60007A72FEF793FA114B04211860204606F0A3
:102A70003AFD00287FF46CAF0D4B18600D4B1860C9
:102A800068E700BF5C0A0020119E0108479E01080C
:102A900000380240E43B012004000020600A0020CE
:102AA000C03B0120843B012006000020640A002076
:102AB000540A0020580A0020083C0120000400406D
:102AC00000080040034B1B68186880F01000C0F33A
:102AD00000107047083C0120034B1B68186880F009
:102AE0001000C0F300107047843B0120074B084AD8
:102AF000586A10804FF4FA425A62064B80B21A6844
:102B0000A0F5FA4010441860704700BF0004004070
:102B100004000020540A0020074B084A586A10801D
:102B20004FF4FA425A62064B80B21A68A0F5FA4096
:102B300010441860704700BF0008004006000020E5
:102B4000580A002010B5104B104C5A6A22804FF4DE
:102B5000FA425A6201F08EFA4FF47A720023FEF7BD
:102B600015FA2388A3F5FA41094B1A6818604EF646
:102B70006023821A4B43402093FBF0F332205043F2
:102B800093FBF0F010BD00BF0004004004000020E3
:102B9000600A002010B5104B104C5A6A22804FF486
:102BA000FA425A6201F066FA4FF47A720023FEF795
:102BB000EDF92388A3F5FA41094B1A6818604EF61F
:102BC0006023821A4B43402093FBF0F332205043A2
:102BD00093FBF0F010BD00BF00080040060000208D
:102BE000640A002070B5124B124D5A6A2A804FF4C5
:102BF000FA425A6206460C4601F03CFA4FF47A72E9
:102C00000023FEF7C3F92B880B4DA3F5FA422B687E
:102C10003260C11A4EF6602353432860402293FB72
:102C2000F2F332224A4393FBF2F3236070BD00BFFC
:102C30000004004004000020600A002070B5124B20
:102C4000124D5A6A2A804FF4FA425A6206460C46DE
:102C500001F010FA4FF47A720023FEF797F92B88EF
:102C60000B4DA3F5FA422B683260C11A4EF6602371
:102C700053432860402293FBF2F332224A4393FBF2
:102C8000F2F3236070BD00BF000800400600002082
:102C9000640A00202DE9F8430D461E49DFF88490B0
:102CA0001D4E1C464B6AA9F800301C4B90465A6AD0
:102CB00032804FF4FA424A625A62074601F0DAF96A
:102CC0004FF47A720023FEF761F9B9F80030144A24
:102CD000A3F5FA433B603388A3F5FA461368C8F8B6
:102CE0000060C31A106032213A6859434EF66023DF
:102CF0005A434020734392FBF0F293FBF0F392FBB4
:102D0000F1F293FBF1F312B21BB22A602360BDE82B
:102D1000F88300BF000400400600002000080040C7
:102D2000600A00200400002070B590B0322200211B
:102D300003A811F09BFD104CFFF7D8FE0546FFF7E6
:102D4000EBFE064601F096F94FF47A720023FEF787
:102D50001DF92B4602462146009603A811F0EEFD10
:102D600003A8FEF72DFBC1B203A8FEF7DDFD4FF46B
:102D7000FA700CF04BFCDFE7F99D0108F0B52DED82
:102D8000028B95B03222002107A811F06FFD0023BD
:102D9000CDE9043306930CF0BBFA9FED328A324D35
:102DA000324C039001F066F9FEF75AF807EE900AEC
:102DB00067EE887A2E4ECDED047A0EF015FC6B6A24
:102DC00023802C4B2C4F5A6A32804FF4FA426A62AD
:102DD0005A620EF02BFC03F057FE396832882388C4
:102DE0003860A2F5FA46421A3221514307EE901A92
:102DF0004EF66022A3F5FA43B8EEE77A402153433A
:102E000093FBF1F307EE903AF8EEE77A7243C7EEE0
:102E1000876A92FBF1F21948022304A9006807EEC1
:102E2000902AF8EEE77ACDED056AC7EE876A0022B0
:102E3000CDED066A0DF0FAFA0598FDF7A9FB0646F6
:102E400006980F46FDF7A4FB3246CDE900013B464C
:102E50000B4907A811F072FD142103A80CF08EFB9A
:102E6000A0E700BFBD378635000400400400002005
:102E70000600002000080040600A00205C0A0020D4
:102E8000459F010808B5054B0A46014618680DF034
:102E900065FC431E5842584108BD00BF5C0A002033
:102EA00030B52C228FB000214C4811F0DFFC0022FD
:102EB0002C2101200DF078FA494B1860E0B9494BFC
:102EC00002AA03F1200518685968144603C40833A0
:102ED000AB422246F7D1186899889B792060A1807F
:102EE000A37102A8FEF76CFAC1B202A8FEF71CFD9E
:102EF0004FF0FF300FB030BD3B4B02AA03F120056D
:102F000018685968144603C40833AB422246F7D107
:102F100018689B88A380206002A8FEF751FAC1B20E
:102F200002A8FEF701FD0023304A0193516C304C9A
:102F300041F001015164526CA36002F00102019260
:102F4000019A2C4A6361C4E90023204642F22732E9
:102F5000C4E9032307F01AF970B1274B02AA03F161
:102F6000200518685968144603C40833AB4222464A
:102F7000F7D118682060B4E7204960238860C1E970
:102F80000400C860886148600C2220460B6007F08E
:102F9000CBFA80B11A4B02AA03F1280518685968C8
:102FA000144603C40833AB422246F7D118681B7994
:102FB0001060137195E70C21204607F0C9FB00282B
:102FC00098D0104B02AA03F12005186859681446DE
:102FD00003C40833AB422246F7D1E7E7700A00206A
:102FE0006C0A00207C9E0108A39E01080038024064
:102FF000443C012000000140C99E01089C0A0020B9
:10300000ED9E01081A9F010870B51C491C4B4860D1
:1030100058818CB000221B4807F086FA0146C8B1DF
:10302000194B01AA03F12806154618685968144679
:1030300003C40833B3422246F7D11B8813802846C5
:10304000FEF7BEF9C1B22846FEF76EFC4FF0FF3026
:103050000CB070BD0B4807F07BFB0028F8D00B4B81
:1030600001AA03F12006154618685968144603C4DE
:103070000833B3422246F7D1DFE700BF9C0A0020A5
:10308000700A0020443C0120539F01087D9F0108E5
:1030900070B51C4B1C49D8838CB048600C221B486F
:1030A00007F042FAC8B11A4B01AA03F128061546E7
:1030B00018685968144603C40833B3422246F7D14E
:1030C0001B8813802846FEF77BF9C1B22846FEF71D
:1030D0002BFC4FF0FF300CB070BD0C210B4807F0FB
:1030E00037FB0028F7D00B4B01AA03F12006154649
:1030F00018685968144603C40833B3422246F7D10E
:10310000DEE700BF700A00209C0A0020443C01203A
:103110009F9F0108C99F010870B5134C134E606052
:1031200070810D4600222146114807F0FDF9014645
:1031300010B14FF0FF3070BD0D4807F009FB0028BB
:10314000F7D10C2221460A48F583656007F0ECF9B7
:103150000028EED10C21064807F0FAFA003018BF1B
:1031600001204042E7E700BF9C0A0020700A0020CF
:10317000443C0120074BDFED087A83ED030A20EE83
:10318000270ABCEEC00A10EE102A90B25881FFF751
:103190003BBF00BF700A0020009C0C46074BDFEDD0
:1031A000087A83ED080A20EE270ABCEEC00A10EE6A
:1031B000102A90B2D883FFF76BBF00BF700A0020BF
:1031C000009C0C4608B52DED028BB0EE608AFFF72F
:1031D000D1FF50B9B0EE480AFFF7E0FF003018BF4A
:1031E00001204042BDEC028B08BD4FF0FF30F9E7F3
:1031F00038B5041E1F4D1ED100F18040012122462A
:1032000000F50230297205F013FB224602211A480C
:1032100005F00EFB19491A484C6000226C8107F03A
:1032200083F9014610BB164807F092FA003018BF28
:103230000120404238BD11DA002201210E482A72D5
:10324000644205F0F5FA012202210B4805F0F0FA7C
:1032500042F227339C42A8BF1C46DBE701221146FD
:1032600005482A7205F0E4FA0022EDE74FF0FF303E
:10327000E0E700BF700A0020000802409C0A00201E
:10328000443C012038B5041E1F4D1FD100F1804081
:1032900001232246082100F502302B7705F0C8FAF9
:1032A00022461021194805F0C3FA19491948EC8340
:1032B0000C224C6007F038F918BB0C21154807F0B8
:1032C00047FA003018BF0120404238BD11DA002211
:1032D00008210E482A77644205F0AAFA012210213B
:1032E0000A4805F0A5FA42F227339C42A8BF1C46C3
:1032F000DBE70122082105482A7705F099FA002228
:10330000EDE74FF0FF30E0E7700A002000080240D0
:103310009C0A0020443C012010B5044628B14442D8
:1033200042F227339C42A8BF1C46002201210E48CE
:1033300005F07EFA002202210B4805F079FA0B49CC
:103340000B48A4B200224C6007F0EEF8014638B9F1
:10335000074807F0FDF9003018BF0120404210BDBA
:103360004FF0FF30FBE700BF000802409C0A00203E
:10337000443C012010B5044628B1444242F22733B0
:103380009C42A8BF1C46002208210E4805F050FAB6
:10339000002210210B4805F04BFA0B490B48A4B250
:1033A0000C224C6007F0C0F840B90C21074807F028
:1033B000CFF9003018BF0120404210BD4FF0FF3060
:1033C000FBE700BF000802409C0A0020443C0120AB
:1033D00008B50421044805F025FA044BB0FA80F042
:1033E0004009187508BD00BF00080240700A00209F
:1033F00008B52021044805F015FA044BB0FA80F016
:10340000400983F8280008BD00080240700A002027
:1034100010B5064C00222046012105F009FA20468D
:1034200000220221BDE8104005F002BA0008024067
:1034300010B5064C00222046082105F0F9F9204677
:1034400000221021BDE8104005F0F2B9000802404A
:1034500010B50B4C00222046012105F0E9F9204669
:103460000022022105F0E4F920460022082105F09F
:10347000DFF9204600221021BDE8104005F0D8B940
:1034800000080240012808B502460B4B0BD1187208
:1034900001460A4805F0CCF9002202210748BDE8A0
:1034A000084005F0C5B900221A720121034805F051
:1034B000BFF90122F1E700BF700A002000080240B6
:1034C000012808B502460B4B0BD1187708210A4892
:1034D00005F0AEF9002210210748BDE8084005F0CC
:1034E000A7B900221A770821034805F0A1F90122A3
:1034F000F1E700BF700A002000080240012838B53B
:1035000002460D46154C18D120720146144805F0AC
:103510008FF900220221124805F08AF9012D14D1F9
:103520002A4608210E48257705F082F9002210214D
:103530000B48BDE8384005F07BB90022012108485E
:10354000227205F075F90122E4E7002208210448FF
:10355000227705F06DF90122E9E700BF700A00202B
:103560000008024038B5002442F228352046FFF713
:103570003FFE0134052003F08DFAAC42F6D10B4D2D
:1035800042F227342046FFF733FE013C052003F0CA
:1035900081FAAC42F6D1064C2046FFF729FE0134F1
:1035A000052003F077FA012CF6D138BDD8DCFFFFF7
:1035B000D9DCFFFF38B5002442F228352046FFF75A
:1035C00061FE0134052003F065FAAC42F6D10B4DE3
:1035D00042F227342046FFF755FE013C052003F058
:1035E00059FAAC42F6D1064C2046FFF74BFE0134A7
:1035F000052003F04FFA012CF6D138BDD8DCFFFFCF
:10360000D9DCFFFF38B5002442F228352046FFF709
:10361000EFFD2046FFF736FE0134052003F03AFAAD
:10362000AC42F3D10E4D42F227342046FFF7E0FDC5
:103630002046FFF727FE013C052003F02BFAAC42A1
:10364000F3D1084C2046FFF7D3FD2046FFF71AFEC2
:103650000134052003F01EFA012CF3D138BD00BF60
:10366000D8DCFFFFD9DCFFFFF8B5184F184E2DED61
:10367000028B9FED188A01250024012D0CBF013417
:1036800004F1FF3442F225339C421DDCBC42B8BF3A
:1036900001252046FFF7ACFD2046FFF7F3FD00F0C3
:1036A000E9FCFDF7DDFB07EE900A0B4808490068CE
:1036B00067EE887A02230022C6ED007A0CF0B6FE8F
:1036C00005200BF0A3FFD8E70025E2E7DBDCFFFFD6
:1036D000700A0020BD3786356C0A002008B5054BFE
:1036E0000146002218680DF039F8431E584258412F
:1036F00008BD00BF6C0A0020C0EE200A08B5F7EE36
:10370000007AF4EEE70AF1EE10FA1FDCFFEE007A21
:10371000F4EE670AF1EE10FA48BFF0EE670ADFED4B
:103720000D7A0D4B60EEA77A142202FB0030C0ED3B
:10373000030A17EE900AFCF72BFF41EC100B0EF07A
:10374000B9F851EC100BFDF72BFA08BDF0EE670A43
:10375000E5E700BF009C0C46700A0020F0B52DED97
:10376000028B002385B0CDE90133244C244D9FED1D
:10377000258A0393142101A800F01EFC90B3019B3D
:103780009DED020A2360F2EE080A039BA36100206C
:1037900084ED010AFFF7B0FFF2EE080A94ED060A85
:1037A00007460120FFF7A8FF06463846FFF720FD31
:1037B0003046FFF767FD02230022214628680CF0FF
:1037C00035FE002323616362FFF702FE2075FFF7D9
:1037D0000FFE022384F828000022214628680CF0FE
:1037E00025FEC7E700F046FCFDF73AFB07EE900A1E
:1037F00067EE887AC4ED007AE3E700BF700A002024
:103800006C0A0020BD378635014B93ED000A7047E6
:10381000680A0020000000002DE9704F2DED068B96
:1038200010EE900A82B010EE106AFCF7B1FE40A3D1
:10383000D3E9002304460D46FCF702FF41EC100BD0
:103840000EF08AF83CA3D3E90023B0EE409AF0EEE4
:10385000609A20462946FCF7F3FE41EC100B0EF06F
:103860007BF837A3D3E90023B0EE40AAF0EE60AABC
:1038700020462946FCF7E4FE41EC100B0EF06CF8F4
:1038800031A3D3E90023B0EE408AF0EE608A2046EF
:103890002946FCF7D5FE41EC100B0EF05DF82CA389
:1038A000D3E90023204629465BEC10ABFCF7C8FEA9
:1038B00041EC100B0EF050F827A3D3E9002320466B
:1038C000294659EC108BFCF7BBFE41EC100B0EF0B7
:1038D00043F853EC1A2B51EC190B8DED000BFCF750
:1038E000F9FC53EC182BFCF7F5FC52465B46FCF751
:1038F000F1FC42464B46FCF7EDFC9DED000B53EC12
:10390000102BFCF7E7FC044630460D46FCF740FE62
:1039100002460B4620462946FCF792FEFDF788F941
:1039200000EE100A02B0BDEC068BBDE8708F00BF40
:10393000182D4454FB211940BEBCA37B2F1BE43F30
:10394000BEBCA37B2F1BF43FC7980646C728FE3F8B
:10395000BEBCA37B2F1B0440182D4454FB210940FF
:103960002DE9F0432DED048B95B03222002107A8FC
:1039700010F07CFF0023CDE904332B4C2B4F9FED3F
:103980002C9A0693142104A8FFF77CFA0028F9D09A
:103990002068FCF7FDFD804606988946FCF7F8FD97
:1039A000CDE902010598FCF7F3FD42464B46CDE90F
:1039B0000001394607A810F0C1FF07A8FDF700FD78
:1039C000C1B207A8FDF7B0FF00F054FBFDF748FABD
:1039D00007EE900A27EE898A9FED160AF0EE480A54
:1039E000FFF71AFFF2EE080A0020F0EE408A84ED9D
:1039F000000AFFF781FEF2EE080AB0EE680A0646FA
:103A00000120FFF779FE05463046FFF7F1FB284617
:103A1000FFF738FC08480949006881ED008A022355
:103A200000220CF003FDADE7680A00203F9F01086B
:103A3000BD378635666646406C0A0020700A002055
:103A400030B52DED028B10EE100A83B0B0EE608A17
:103A50008DED011AFCF79CFD14A3D3E90023FCF7BC
:103A6000EFFD9DED011A044611EE100A0D46FCF71C
:103A70008FFD02460B4620462946FCF7E1FDFDF787
:103A8000D7F800EE100A0DF0F7FFDFED077AB4EE7D
:103A9000E70AF1EE10FAB4BFB0EE670AB0EE480ADA
:103AA00003B0BDEC028B30BD00000000182D445463
:103AB000FB2119400000000030B52DED028B10EE07
:103AC000100A83B0B0EE608A8DED011AFCF760FD3C
:103AD0001FA3D3E90023FCF7B3FD9DED011A0446B3
:103AE00011EE100A0D46FCF753FD02460B46204628
:103AF0002946FCF7A5FDFDF79BF800EE100A0DF036
:103B0000BBFF0EF061F878EE087A8DED010A17EE32
:103B1000900AFCF73DFD10A3D3E90023FCF7BAFEA1
:103B20009DED010A044610EE100A0D46FCF730FD2B
:103B300002460B4620462946FCF782FDFDF778F841
:103B400000EE100A03B0BDEC028B30BDAFF3008075
:103B5000182D4454FB211940182D4454FB210940D1
:103B600070B52F4D2A7890B0002A56D10C21012033
:103B70000CF01AFC2B4B1860C8B92B4B6A4603F1AA
:103B8000380518685968144603C40833AB42224606
:103B9000F7D118681B79206023716846FDF710FC87
:103BA000C1B26846FDF7C0FEFF2010B070BD1F4BCC
:103BB0006A4603F1380618685968144603C4083386
:103BC000B3422246F7D1186820606846FDF7F8FB3B
:103BD000C1B26846FDF7A8FEB2EE092AF0EE421A1D
:103BE000DFED132A9FED131A1348F1EE040AB6EE27
:103BF000000A02F0ABFCB2EE092A1048DFED0C2AF5
:103C00009FED0C1AF0EE421AF1EE040AB6EE000A2D
:103C100002F09CFC01202870C7E70020C5E700BF28
:103C2000C00A0020C40A0020EB9F010828A0010858
:103C30000AD7A33C0AD7233CC80A0020080B00205F
:103C4000014B1878704700BFC00A002010B5054C22
:103C5000204602F0F7FC04F14000BDE8104002F0FD
:103C6000F1BC00BFC80A002070B52DED088B8EB0E6
:103C700000F000FAFDF7F4F89FED4FAA4F4C504EBC
:103C800007EE900A1C2200210DEB020027EE8A8A23
:103C9000CDE90111CDE90311CDE9051110F0E6FDE3
:103CA0002546142101A8FFF7EDF818B1029B0993EE
:103CB000039B0C93D4ED009A94ED019ACDED089AF4
:103CC0008DED0B9ADDED09BA9DED0CBA00F0D2F93D
:103CD000FDF7C6F807EE900A94ED007A67EE8AAA1F
:103CE000F1EE047AB4EEE77AF1EE10FACDED07AA20
:103CF0003AEEC88AF0EE678A4AD5F9EE047AB4EE55
:103D0000E77AF1EE10FA43DDF3EE016AC7EE267AA8
:103D1000CDED0A7AD5ED017AF4EEE87AF1EE10FAFB
:103D200040D5B9EE047AF4EEC77AF1EE10FA39DD37
:103D3000F3EE016A87EEA67A8DED0D7A9DED0A7A93
:103D4000D5ED007A1F4867EE877A9DED0D7A006801
:103D5000F5EEC07AD5ED017A67EE877AF1EE10FACA
:103D60004FF00003F5EEC07A48BF0A93F1EE10FA67
:103D700048BF0D93079B04930A9B05930D9B0693E5
:103D80000022022304A90CF051FBB0EE6A8A88E7F6
:103D9000F0EE480A39EEEB0A304602F0E9FB8DED11
:103DA0000A0AB7E7F0EE480A39EE4B0A064802F075
:103DB000DFFB8DED0D0AC1E7BD378635B80A00205F
:103DC000C80A0020C40A0020080B0020F0B52DED21
:103DD000088B9FB000F04EF9FDF742F8DFED6A9ACC
:103DE0006A4D9FED6BBA07EE900A3222002111A8AE
:103DF00067EEA98A10F03AFD00211C220AA8CDE93D
:103E00000411CDE90611CDE9081110F02FFD40F69F
:103E1000B8300BF0FBFB00F02DF9FDF721F807EEB1
:103E2000900A67EEA9AA2C46142104A8FFF72AF8E5
:103E300018B1059B0C93069B0F9300F01BF9FDF73F
:103E40000FF807EE900A27EEA9AAF0EE4B0A3AEE19
:103E50006A1A9FED500A8DED0AAAFFF72DFEF1EECA
:103E6000047AB4EEE70AF1EE10FAB0EE408A85ED7E
:103E7000000A85ED010A8DED0B0A8DED0E0ADDEDD0
:103E80000FBA7AEE688AB0EE679A66D5F9EE047AD0
:103E9000B4EEE70AF1EE10FA5FDDB3EE017AC0EEA0
:103EA000077ACDED0D7AD4ED017AF4EEC97AF1EE10
:103EB00010FA5ED5B9EE047AF4EEC77AF1EE10FA94
:103EC00057DDF3EE016A87EEA67A8DED107A9DED4F
:103ED0000D7AD4ED007A304867EE877A9DED107A3E
:103EE0000068F5EEC07AD4ED017A67EE877AF1EEDC
:103EF00010FA4FF00003F5EEC07A48BF0D93F1EED3
:103F000010FA48BF10930A9B07930D9B0893109BD0
:103F100009930022022307A90CF088FA2068FCF715
:103F200037FB064605980F46FCF732FBCDE9020148
:103F30000898FCF72DFB3246CDE900013B461749B6
:103F400011A810F0FBFC11A8FDF73AFAC1B211A8B4
:103F5000FDF7EAFCF0EE4A8A66E79DED0C0A104890
:103F6000F0EE680A38EE400A02F002FB8DED0D0A11
:103F700099E7F0EE680A38EE6B0A0A4802F0F8FAA0
:103F80008DED100AA3E700BFBD378635B80A0020C3
:103F900000004843CDCCCC3DC40A00203F9F01081F
:103FA000C80A0020080B0020024B83ED000AC3ED75
:103FB000010A7047B80A002008B5054B0A460146B9
:103FC00018680CF0CBFB431E5842584108BD00BF97
:103FD000C40A002030B589B008A9002541F81C5D4D
:103FE00003A803F0E3F8069B1BBB03F071F81C4B1E
:103FF00002951A6C1B4C42F010021A641B6CA560EF
:1040000003F010030293029B174B2360174BB0FB86
:10401000F3F0013860604FF6FF732046C4E90335C2
:10402000656106F07FF8024638B14FF0FF3009B005
:1040300030BD03F04DF84000D9E70121362003F0F0
:104040001FFF362003F050FF204605F07EF80028C1
:10405000EBD1074B00240025C3E90045E7E700BF8B
:1040600000380240803C01200010004040420F0018
:10407000480B00202DE90048064B586A064BD3E94F
:10408000002312EB000B43F1000C58466146BDE8DB
:10409000008800BF00100040480B0020F8B504461F
:1040A000FFF7E8FF002506460F46FFF7E3FF821BF8
:1040B00061EB07039D4208BF9442F6D2F8BD0000B1
:1040C000044B00225A62044B00200021C3E9000186
:1040D000704700BF00100040480B0020034B1A68D7
:1040E000D36823F00103D360704700BF803C0120F8
:1040F000034B1A68D36843F00103D360704700BFD5
:10410000803C01202DE9D0433C2492B0224600217E
:1041100003A810F0ABFBFFF7ADFF064628200F46C3
:1041200002F0B8FCFFF7A6FF8046801B61EB070199
:104130004FF47A720023FCF729FF33460246CDF88C
:104140000080054903A810F0F9FB214603A8FDF7FC
:10415000EBFB12B0BDE8D08364A001082DE9304824
:10416000094B0A491B686FF001021A61D1E900236B
:104170004FF6FF7412EB040B4FF0000543EB050CF8
:10418000C1E900BCBDE83088803C0120480B00201C
:1041900007B50023144A0193516C144841F480512F
:1041A0005164526C836002F480520192019A104A69
:1041B00002603022C2614FF482724FF0010E426001
:1041C0000222C0E9042E0722C2624FF40072836209
:1041D000C36003628261436207F025FAB0FA80F09F
:1041E000400903B05DF804FB00380240BC3C0120EC
:1041F0000030014010B50F4B0F4C5A6A42F4805208
:104200005A625A6A22F480525A622046202104F0EF
:1042100075FA2046402104F071FA2046802104F00E
:104220006DFA2046102104F069FA0448BDE81040F8
:1042300007F03FBA0038024000000240BC3C0120B9
:10424000034A136823F038031843106001207047B5
:104250000030014037B50D4C8DF804008DF8051085
:1042600020460022102104F0E3FA0A2301A90222C9
:10427000074807F034FA012205461021204604F0D1
:10428000D7FAB5FA85F0400903B030BD000002400E
:10429000BC3C01207FB5134D04AC002260F07F00D0
:1042A0000E468DF8080024F8042D284610218DF8BC
:1042B000092004F0BDFA0A2300932246022302A932
:1042C000094807F0D2FA012204461021284604F0DA
:1042D000AFFA9DF80D303370B4FA84F0400904B0A1
:1042E00070BD00BF00000240BC3C01202DE9F3413D
:1042F00002AC114D04F8010D104E0F4690462846B1
:104300000022102104F094FA21460A2301223046AB
:1043100007F0E5F90A2342463946304607F0DFF94F
:10432000012204461021284604F082FAB4FA84F0EF
:10433000400902B0BDE8F08100000240BC3C012011
:104340002DE9F34102AC124D124E60F07F0004F8EB
:10435000010D0F46904628460022102104F068FA0D
:1043600021460A230122304607F0B9F90A234246C2
:104370003946304607F0D9FB012204461021284671
:1043800004F056FAB4FA84F0400902B0BDE8F081B6
:1043900000000240BC3C0120F0B52DED028BB7B00F
:1043A00000251DAC294664222046CDE90A55CDE9F9
:1043B0000C55CDE90E55CDE91055CDE91255CDE995
:1043C000145510F053FA1C22294616A810F04EFA84
:1043D00051499FED528A524D524EDFED538A20468D
:1043E00010F0CEFA2046FCF7EBFFC1B22046FDF7F5
:1043F0009BFA642216A928680CF034FB01287FD1AF
:104400000AA91AAB0DAAB3EC017AD1ED007A77EEC6
:10441000877AA342E1EC017AD2ED007AE7EE077ADF
:10442000E2EC017AEFD1F7EE007A38EE278AB4EEAB
:10443000E88AF1EE10FADCD43C4E00250AAB2B449E
:1044400093ED007AC7EE087A10AB2B44C3ED007AE7
:104450000DAB2B4493ED007AE6EC017A87EE080A67
:1044600013AB2B440435A7EEE70A83ED000A86ED73
:10447000230A0DF005FC0C2D86ED2C0ADED12C490B
:10448000204610F07DFA2046FCF79AFFC1B2204684
:10449000FDF74AFA1098FCF77BF8064615980F4688
:1044A000FCF776F8CDE908011498FCF771F8CDE92E
:1044B00006011398FCF76CF8CDE904011298FCF79B
:1044C00067F8CDE902011198FCF762F832463B46E5
:1044D000CDE900011749204610F030FA2046FCF7DC
:1044E0006FFFC1B22046FDF71FFA134B01220020D7
:1044F00083F8A6210AF0E8FC37B0BDEC028BF0BDD2
:104500003146204610F03CFA2046FCF759FFC1B274
:104510002046FDF709FA8AE78CA001080000000098
:10452000500B0020B0A0010800007A44300C00209D
:10453000F8A001080FA101085C0B002070B57A48B3
:104540008AB001F099F90446C8B9784B6A4603F17C
:10455000100618685968154603C50833B3422A4641
:10456000F7D119889B782980AB706846FCF728FF43
:10457000C1B26846FDF7D8F920460AB070BD6C4B51
:104580006A4603F1100518685968144603C40833D5
:10459000AB422246F7D11B8823806846FCF710FF08
:1045A000C1B26846FDF7C0F91020FFF749FE044686
:1045B00080B9604B6A4603F11006186859681546C1
:1045C00003C50833B3422A46F7D118681B7928601F
:1045D0002B71CAE7584B6A4603F1100518685968F1
:1045E000144603C40833AB422246F7D11868206052
:1045F0006846FCF7E5FEC1B26846FDF795F9002272
:10460000282101200BF0D0FE4C4B1860B0B94C4B68
:104610006A4603F1180518685968144603C408333C
:10462000AB422246F7D11B7813706846FCF7C8FEF0
:10463000C1B26846FDF778F900249DE7414B6C460E
:1046400003F1180518685968224603C20833AB42C3
:104650001446F7D16846FCF7B3FEC1B26846FDF7D1
:1046600063F900221C2101200BF09EFE364B1860DE
:1046700060B9364B6A4603F1180518685968144644
:1046800003C40833AB422246F7D1CCE7304B6C462B
:1046900003F1180518685968224603C20833AB4273
:1046A0001446F7D16846FCF78BFEC1B26846FDF7A9
:1046B0003BF90322002101200BF076FE254B186008
:1046C00080B9254B6A4603F12005186859681446DD
:1046D00003C40833AB422246F7D118689B88206098
:1046E000A380A2E71D4B6A4603F1200518685968AC
:1046F000144603C40833AB422246F7D118681B792D
:10470000237120606846FCF75BFEC1B26846FDF786
:104710000BF900220521082003F0B2FB082003F06A
:10472000E3FB012428E700BF5C0B00208DA10108FA
:10473000A0A10108B2A10108C7A10108540B0020E3
:10474000DBA10108F4A10108500B00200CA2010814
:1047500025A20108580B00203DA2010863A2010810
:10476000F0B52E488BB000F09DFE044600284CD1D9
:104770002B4B6A4603F11807164618685968154608
:1047800003C50833BB422A46F7D118682860304673
:10479000FCF716FEC1B23046FDF7C6F81F4800F020
:1047A000AFFEA0BB1F4B6A4603F1200716461868F0
:1047B0005968154603C50833BB422A46F7D130462F
:1047C000FCF7FEFDC1B23046FDF7AEF8134800F02D
:1047D0006DFAF8B9144B6A4603F1200716461868BB
:1047E0005968154603C50833BB422A46F7D11868F5
:1047F0009B882860AB803046FCF7E2FDC1B23046B2
:10480000FDF792F820460BB0F0BD0124C6E7013455
:10481000E4B2DBE70134E4B2F4E700BF5C0B002054
:1048200088A20108A4A20108C4A20108F0B52DEDD8
:10483000028BB1B06422002117A810F017F82822CB
:1048400000210DA810F012F8314D324C9FED328A44
:1048500028684FF0FF310CF021F8012854D10AF0FC
:104860004FFD204600F0EDFA06460AF011FE002E3C
:104870004AD0FFF7FFFBFCF7F3FA07EE900A67EE6A
:10488000887A2046CDED0D7A00F004FB234B0EAA6A
:1048900003F10C0153F8040B42F8040B9868906084
:1048A0008B4258695061F5D11D48022300220DA9A1
:1048B00000680BF0BBFD0D98FBF76AFE06461398E7
:1048C0000F46FBF765FECDE90A011298FBF760FE83
:1048D000CDE908011198FBF75BFECDE906011098C0
:1048E000FBF756FECDE904010F98FBF751FECDE929
:1048F00002010E98FBF74CFE3246CDE900013B4623
:10490000084917A810F01AF8C8200AF07FFE9FE7A0
:10491000580B00205C0B0020BD378635840B00202F
:10492000540B00204DA10108F0B52DED028B93B082
:104930002822002108A80FF099FF1C22002101A8BD
:104940000FF094FF314D324C9FED328A28684FF0C2
:10495000FF310BF0A3FF0128F8D10AF0D1FC2C485D
:1049600000F06FFA06460AF093FD002EEED0FFF736
:1049700081FBFCF775FA07EE900A67EE887A20460D
:10498000CDED087ACDED017A00F084FA94F8A631E5
:10499000214833B3A0F10C0309AA02A953F8046B10
:1049A00042F8046BD3ED027A93ED2A7A41F8046B56
:1049B00077EEC77A5F69C2ED027A83425761C1ED33
:1049C000027AEBD1154801A90223002200680BF0FE
:1049D0002DFD13480223002208A900680BF026FDD4
:1049E000B4E7A0F10C0109AB02AA51F8047B43F82B
:1049F000047B42F8047B8E68D1F814C09E6081422B
:104A0000C3F814C09660F0D1DCE700BF580B00205B
:104A10005C0B0020BD378635900B0020500B00202A
:104A2000540B002008B5054B0A46014618680BF0E8
:104A300095FE431E5842584108BD00BF540B00204C
:104A400008B5054B0A46014618680BF087FE431E61
:104A50005842584108BD00BF500B0020014B93F84D
:104A6000A60170475C0B0020064A031D103052F867
:104A7000041B43F8041B9168996051695961834292
:104A8000F5D17047A80B0020064BDA6C42609A6D96
:104A900002611A6D8260DA6D42615A6DC2601B6EEE
:104AA000836170475C0B002070B505228EB0002337
:104AB000CDE90023124913484FF496720AF018F911
:104AC000012816D0104B02AA03F1300615461868CB
:104AD0005968144603C40833B3422246F7D1284626
:104AE000FCF76EFCC1B22846FCF71EFF00200EB09A
:104AF00070BD064B93F8A601003018BF0120F6E701
:104B0000C19A010899430008639C01085C0B0020CE
:104B100007B50D4B5A69520713D5042202A95A61F1
:104B2000002341F8043D094B18680BF0C2FD019BBE
:104B30003BB1074B4FF080521A60BFF34F8FBFF36A
:104B40006F8F03B05DF804FB003C0140580B002060
:104B500004ED00E038B54FF47A7494FBF1F4013CB5
:104B6000E4B22DED048B054621461920FFF772FBB8
:104B700007EE904AF8EEE77AF7EE008A77EEA87A29
:104B80009FED149A89EE278A18EE100AFBF700FDB4
:104B900041EC100B0CF08EFE51EC100BFCF728F8DA
:104BA000C9EE087AA5F8AA0117EE900AFBF7F0FC07
:104BB00041EC100B0CF07EFE51EC100BFCF718F8DA
:104BC000C8EE887ABDEC048BA5F8AC01C5ED687A17
:104BD00038BD00BF00007A4470B506460D4625205A
:104BE0000C21FFF737FB0446012001F053FF31464B
:104BF0002620FFF72FFB0440012001F04BFF294640
:104C00006320FFF727FB04F001040440012001F0BA
:104C100041FF81212720FFF71DFB04400A2001F0FE
:104C200039FF204670BD000070B586B014220D46D5
:104C30000646002101A80FF019FE8C212520FFF760
:104C400009FB0446012001F025FF31462620FFF72D
:104C500001FB0440012001F01DFF00216320FFF74C
:104C6000F9FA04F001040440012001F013FF81214E
:104C70002720FFF7EFFA04400A2001F00BFF294636
:104C80004920FFF707FB2A780749044001A80FF0E5
:104C900055FE01A8FCF794FBC1B201A8FCF744FE45
:104CA000204606B070BD00BFECA3010870B590F8B7
:104CB000A43104460BB9002070BD014616223B20EA
:104CC000FFF73EFB002800F0A38023786178E278AC
:104CD000D4ED2D6A257941EA032109B207EE901A35
:104CE000A378E18242EA0322B8EEE77A6379617A37
:104CF00012B227EE267A07EE902A43EA05231BB26A
:104D000084ED0A7AB8EEE77A07EE903A6383F8EE1C
:104D1000E77A237A228367EEA67A41EA032109B271
:104D200027EE267AA37AC4ED0C7AE27AD4ED2E6AC5
:104D300084ED0B7A07EE901A42EA0322B8EEE77A86
:104D4000257B637BA18312B227EE267A07EE902A99
:104D500043EA05231BB284ED0D7AB8EEE77A07EE3D
:104D6000903A2384F8EEE77A0023C4F8B031A37BAD
:104D7000E28327EE267A67EEA67ADB0784ED0E7AC9
:104D8000C4ED0F7A03D5637D13F008050DD0D4F878
:104D9000B4310133B3F57A7F89BF0023C4F8B4314D
:104DA000C4F8B43184F8A53186E7237CE17B94ED27
:104DB0002F7A627C267DC4F8B45141EA032109B2FE
:104DC00007EE901AA37C6184F8EEE77A42EA0322A8
:104DD00067EE877A12B2C4ED117A07EE902A94ED4D
:104DE000307AE37CA284F8EEE77A43EA062367EEA2
:104DF000877A1BB2C4ED107A07EE903A94ED317ABF
:104E0000E384F8EEE77A67EEC77AC4ED127A53E7E7
:104E1000D4F8B021D4F8B43101320133B2F57A7F3D
:104E2000C4F8B021C4F8B43103D8B3F57A7F7FF663
:104E300042AF0023C4F8B031C4F8B431A4F8A431AF
:104E40003AE710B590F8A43104460BB9002010BD24
:104E5000014616223B20FFF773FA18B10023C4F86D
:104E6000B031F4E7D4F8B021D4F8B43101320133D1
:104E7000B2F57A7FC4F8B021C4F8B43102D8B3F5E2
:104E80007A7FE3D90023C4F8B031C4F8B431A4F870
:104E9000A431DCE703784178C278D0ED2D6A41EA8D
:104EA000032109B207EE901A8378C18242EA0322F5
:104EB000B8EEE77A30B543790479417A12B227EE39
:104EC000267A07EE902A43EA04231BB280ED0A7A81
:104ED000B8EEE77A07EE903A4383F8EEE77A037A82
:104EE000028367EEA67A41EA032109B227EE267A09
:104EF000837AC0ED0C7AC27AD0ED2E6A80ED0B7AFF
:104F000007EE901A42EA0322B8EEE77A047B437B6D
:104F1000818312B227EE267A07EE902A43EA042311
:104F20001BB280ED0D7AB8EEE77A07EE903AF8EE14
:104F3000E77A0384837BC28327EE267A67EEA67A1C
:104F4000DB0780ED0E7AC0ED0F7A03D5437D13F0B9
:104F500008040DD0D0F8B4310133B3F57A7F89BF9E
:104F60000023C0F8B431C0F8B43180F8A53130BDA9
:104F7000037CC17B90ED2F7A427C057DC0F8B44163
:104F800041EA032109B207EE901A837C4184F8EECE
:104F9000E77A42EA032267EE877A12B2C0ED117A0D
:104FA00007EE902A90ED307AC37C8284F8EEE77A9F
:104FB00043EA052367EE877A1BB2C0ED107A07EE4D
:104FC000903A90ED317AC384F8EEE77A67EEC77ACB
:104FD000C0ED127ACBE70023A0F8A431012070477E
:104FE000F8B52DED028B002380F8A631B0F8A4317E
:104FF000D0F8B851B0F8AA1104461BB90020BDEC96
:10500000028BF8BD00F1C8030022D430C3F8A820F9
:10501000C3F89C20C3F890209A61DA6043F8042B0F
:105020008342F3D19FED408A4D430026F7EE008A7C
:1050300004F13407AE4224D3F7EE007A38EE678AE3
:10504000B5EEC08AF1EE10FAD8DD04F5AC7304F5C4
:10505000B27293ED007AC7EE087AE3EC017A93ED31
:10506000027AC7EE087A934293ED057AC3ED027A8D
:10507000C7EE087AC3ED057AEBD1012084F8A601CA
:10508000BDE72046FFF712FE00284BD0D4ED0C7A86
:1050900077EEE87A38EE288AC4ED0C7A04F128031A
:1050A000F3EC017A93ED276A77EEC66ABB4286EE8F
:1050B000887A37EE067A93ED2A6A83ED277A77EEBF
:1050C000C77A93ED4B7AA6EEA77AD3ED027A83EDF9
:1050D0004B7A77EEC66A86EE887A37EE067A93EDDB
:1050E0002D6A83ED2A7A77EEC77A93ED4E7AA6EE93
:1050F000A77AD3ED057A83ED4E7A77EEC66A86EE0F
:10510000887A37EE067A77EEC77A83ED2D7A93EDBB
:10511000517AA6EEA77A83ED517AC1D1B4F8AC01E9
:1051200001F0B8FC013685E70000000010B52DED58
:10513000028B90F8A53182B0044633B93D4BC4F8D8
:10514000B03002B0BDEC028B10BDD0ED197A90EDFD
:105150001A8AF5EE407AF1EE10FA0ED1B5EEC08A59
:10516000F1EE10FA44BF344BC0F8B030B5EEC08A4F
:10517000F1EE10FAE5DD314BE1E7F5EEC07AF1EE44
:1051800010FA1CD517EE900AFBF702FACDE90001E0
:1051900018EE100AFBF7FCF99DED001B41EC100B1B
:1051A0000CF0B4FC51EC100BFBF742FDDFED247A60
:1051B00007EE100A77EEC77AC4ED2C7AC1E7B5EE98
:1051C000C08AF1EE10FA17D517EE900AFBF7E0F956
:1051D000CDE9000118EE100AFBF7DAF99DED001B8E
:1051E00041EC100B0CF092FC51EC100BFBF720FD86
:1051F00080F00040C4F8B00094ED1A8AB5EEC08A81
:10520000F1EE10FA9DDD606EFBF7C2F9CDE9000109
:1052100018EE100AFBF7BCF99DED001B41EC100BDA
:105220000CF074FC51EC100BFBF702FDDFED057A7E
:10523000BEE700BF00401CC6DB0FC93FE4CB964071
:10524000DB0F4940DB0FC94090F8A431002B5FD041
:10525000D0ED287AF5EEC07AF1EE10FA28DDD0ED27
:10526000686AF5EEC06AF1EE10FA21DD37EEA67A33
:10527000C6EE877AF5EEC07AF1EE10FA7BD4B7EE7F
:10528000007AF4EE477AF1EE10FAC8BFF0EE477AF2
:1052900000F14C0300F15802B3EC017A53ED0A6AB5
:1052A00076EEC76A9342A6EEA77A03ED017AF3D1B0
:1052B000D0ED297AF5EEC07AF1EE10FA28DDD0EDC6
:1052C000686AF5EEC06AF1EE10FA21DD37EEA67AD3
:1052D000C6EE877AF5EEC07AF1EE10FA4ED4B7EE4C
:1052E000007AF4EE477AF1EE10FAC8BFF0EE477A92
:1052F00000F1580300F16402B3EC017A53ED0A6A3D
:1053000076EEC76A9342A6EEA77A03ED017AF3D14F
:1053100090F8A531C3B3D0ED2A7AF5EEC07AF1EE5C
:1053200010FA31DDD0ED686AF5EEC06AF1EE10FAE0
:105330002ADD37EEA67AC6EE877AF5EEC07AF1EE70
:1053400010FA1ED4B7EE007AF4EE477AF1EE10FAB6
:10535000C8BFF0EE477A00F164037030B3EC017A15
:1053600053ED0A6A76EEC76A8342A6EEA77A03ED8A
:10537000017AF3D17047DFED057A89E7DFED037A33
:10538000B6E7DFED027AE6E7704700BF00000000F5
:1053900090ED327AD0ED0A7A77EEC77A90ED337AD3
:1053A000C0ED137AD0ED0B7A77EEC77A90ED347AB0
:1053B000C0ED147AD0ED0C7A77EEC77A90ED357A9D
:1053C000C0ED157AD0ED0D7A77EEC77A90ED367A8A
:1053D000C0ED167AD0ED0E7A77EEC77A90ED377A77
:1053E000C0ED177AD0ED0F7A77EEC77A90ED387A64
:1053F000C0ED187AD0ED107A77EEC77A90ED397A51
:10540000C0ED197AD0ED117A77EEC77A90ED3A7A3D
:10541000C0ED1A7AD0ED127A77EEC77AC0ED1B7A1A
:105420007047000019B3D1ED006ADFED125AC0EDEC
:10543000256A91ED017A80ED267AD1ED027A66EE49
:10544000A56AC0ED277A27EE257A67EEA57AB7EE32
:10545000006A86EE265AC6EE076A86EE277A80ED47
:10546000285AC0ED296A80ED2A7A01207047084643
:10547000704700BFDB0FC94080F8A711704780F864
:10548000A8117047C0F8B811704707B502A90023EA
:1054900001F8013D3A20FEF7FDFE9DF8070003B03C
:1054A0005DF804FB10B586B004460021142201A863
:1054B0008DF803100FF0DAF9DCB10DF1030175205E
:1054C000FEF7E8FE9DF803200C4901A80FF036FA1C
:1054D00001A8FBF775FFC1B201A8FCF725FA9DF8FA
:1054E0000300712807D0A0F168035842584106B064
:1054F00010BD2046FBE70120F9E700BFEAA2010842
:1055000030B5002587B004461422294601A88DF83D
:1055100003500FF0ABF96CB9154901A80FF030FA40
:1055200001A8FBF74DFFC1B201A8FCF7FDF9204629
:1055300007B030BD0DF103012846FFF775FB0D499B
:105540009DF80320044601A80FF0F8F901A8FBF725
:1055500037FFC1B201A8FCF7E7F9002CE7D09DF8AE
:105560000340413C3E2C8CBF00240124DFE700BFF8
:10557000FEA201080DA30108F0B52DED048B8BB040
:10558000002304468DF80730052501210B20FFF785
:1055900023FB322001F07EFA2046FFF7B1FF08B36B
:1055A000364B02AA03F118071646186859681546C3
:1055B00003C50833BB422A46F7D118681B79286017
:1055C0002B713046FBF7FCFEC1B23046FCF7ACF95C
:1055D0001F210A20FFF700FB48B900200BB0BDECEB
:1055E000048BF0BD013D15F0FF05CED1F5E79FED31
:1055F000249ADFED248A9FED248A04F1BC0510244F
:105600000DF107012046FFF70FFB0028E5D09DF8BC
:10561000073007EE103AB8EEC77AF7EE007A37EEA9
:10562000497A0134E7EE287AE4B2132C67EE887ADF
:10563000E5EC017AE4D100210A20FFF7CDFA002839
:10564000CBD016210A20FFF7C7FA0028C5D08C213D
:105650002520FEF7FFFD02212620FEF7FBFD042199
:105660003420FEF7F7FD88212720FEF7F3FD012106
:105670006720FEF7EFFD0120B0E700BFCFA30108D0
:10568000000000430000803B9A99193E10B52DEDB3
:10569000048B08EE101A04461920FEF7DBFDB8EE65
:1056A000C80AF7EE008A9FED139A30EE280A89EEB9
:1056B000000A0CF0B1F9FCEEC07AB0EE408A17EEA9
:1056C000903AC9EE007AA4F8AA3117EE900AFAF7D8
:1056D0005FFF41EC100B0CF0EDF851EC100BFBF7F9
:1056E00087FAC8EE887ABDEC048BA4F8AC01C4ED4F
:1056F000687A10BD00007A44B1F57A7F01D8FFF7CF
:1057000029BA704737B50D4602A9002301F8013DBB
:1057100004461C20FEF7BEFD9DF8073075B923F046
:1057200018038DF807304FF06253C4F8B4309DF879
:1057300007101C20FEF78EFD03B030BD012D08D1EF
:1057400023F0100343F008038DF807304FF0645343
:10575000EBE7022D08D123F0080343F010038DF886
:1057600007304FF06653E0E7032DE0D143F0180314
:105770008DF807304FF06853D7E7000037B50D4676
:1057800002A9002301F8013D04461B20FEF782FD1B
:105790009DF807306DB923F018038DF80730134BCF
:1057A000C4F8B8309DF807101B20FEF753FD03B076
:1057B00030BD012D07D123F0100343F008038DF80D
:1057C00007300B4BECE7022D07D123F0080343F021
:1057D00010038DF80730074BE2E7032DE2D143F0C9
:1057E00018038DF80730044BDAE700BF0000FA3BDE
:1057F00000007A3C0000FA3C00007A3D08B540B158
:1058000080216B20FEF726FD3220BDE8084001F024
:1058100041B908BD30B591B004460D463222002191
:1058200003A88DF80B100FF021F829462046FEF74B
:1058300011FD10B9002011B030BD0A2001F02AF985
:105840000DF10B012046FEF725FD0028F2D09DF852
:105850000B300849009322462B4603A80FF06EF840
:1058600003A8FBF7ADFDC1B203A8FCF75DF801206A
:10587000E1E700BFFAA30108F0B50446A7B0322063
:1058800001F008F94FF06253C4F8B430A94BC4F8E2
:10589000B830A94BC4F8BC3000200A22C4F8C0308C
:1058A000C4F8C4300023C4F8B821C4F8B001C4F867
:1058B000B401C4F89430C4F89830C4F89C30C4F8EB
:1058C000A030C4F8A430C4F8A830A4F8A60184F825
:1058D000A80104F1160504F12802264604F11C0C67
:1058E00021464FF07E5725F8020BA880688142F8C8
:1058F000043B6545936053611362D36293635364C1
:105900001365D365C2F89C30C2F8A830C2F8B43031
:1059100006F11006C6F8DC70C6F80071C6F82471EE
:1059200001F10C01C1F8E030C1F80431C1F82831AF
:10593000C1F8E430C1F80831C1F82C31C1F8E830C1
:10594000C1F80C31C1F83031CDD105262046FFF722
:1059500055FF20216A20FEF77DFC012001F09AF816
:1059600020216A20FFF756FF012001F093F8012162
:105970006B20FEF76FFC012001F08CF801216B20F9
:10598000FFF748FFC82001F085F82046FFF78AFDA1
:105990000546002840F0DE80013E16F0FF06D5D116
:1059A00084F8A401A5E0654B84F8A5510DAA03F184
:1059B000100618685968154603C50833B3422A46CD
:1059C000F7D118689B882860AB800DA8FBF7F8FC1E
:1059D000C1B20DA8FBF7A8FF05262046FFF766F920
:1059E0000546002800F08880554B04AA03F12007E3
:1059F000164618685968154603C50833BB422A463F
:105A0000F7D119889B78AB7029803046FBF7D8FC1A
:105A1000C1B23046FBF788FF642200210DA80EF0CA
:105A200025FFA06AFAF7B4FD0646206B0F46FAF789
:105A3000AFFDCDE90201E06AFAF7AAFD32463B4626
:105A4000CDE900013F490DA80EF078FF0DA8FBF746
:105A5000B7FCC1B20DA8FBF767FF606BFAF798FDC2
:105A60000646E06B0F46FAF793FDCDE90201A06B05
:105A7000FAF78EFD32463B46CDE9000132490DA8CA
:105A80000EF05CFF0DA8FBF79BFCC1B20DA8FBF765
:105A90004BFF206CFAF77CFD0646A06C0F46FAF728
:105AA00077FDCDE90201606CFAF772FD32463B46A4
:105AB000CDE9000125490DA80EF040FF0DA8FBF728
:105AC0007FFCC1B20DA8FBF72FFF642000F0E2FFBE
:105AD00010213720FEF7BEFB10213720FFF79AFE7A
:105AE00001213820FEF7B6FB01213820FFF792FE96
:105AF0000125284627B0F0BD013E16F0FF067FF4D1
:105B00006CAF134B0DAA03F12007186859681646AD
