:020000040800F2
:1000000000000220C9B30008950400089704000806
:10001000990400089B0400089D04000800000000EB
:100020000000000000000000000000007D9C0008AF
:10003000A104000800000000359D0008A504000888
:1000400019B4000819B4000819B4000819B400085C
:1000500019B4000819B4000819B4000819B400084C
:1000600019B4000819B4000819B4000819B400083C
:1000700019B4000819B4000819B4000819B400082C
:1000800019B4000819B4000819B4000819B400081C
:1000900019B4000819B4000819B40008BB0400081A
:1000A00019B4000819B4000819B4000819B40008FC
:1000B00019B4000819B4000819B4000819B40008EC
:1000C00019B4000819B4000819B4000819B40008DC
:1000D00019B4000819B4000819B4000819B40008CC
:1000E000BD04000819B4000819B4000819B40008C8
:1000F00019B4000819B4000819B4000819B40008AC
:1001000019B4000819B4000819B4000819B400089B
:1001100019B4000819B400080910000819B400083F
:1001200019B4000819B4000819B4000819B400087B
:1001300019B40008000000000000000019B4000815
:1001400019B4000819B4000819B4000819B400085B
:1001500019B4000819B4000819B4000819B400084B
:1001600019B4000819B4000819B4000819B400083B
:1001700019B4000819B4000819B400080000000000
:100180000000000019B4000800000000000000009A
:1001900019B40008000000000000000019B40008B5
:1001A00000000000000000000000000019B400087A
:1001B00019B4000819B4000819B4000819B40008EB
:0401C00019B4000866
:1002000010B5054C237833B9044B13B10448AFF350
:1002100000800123237010BDC009002000000000F1
:10022000A8FF000808B5034B1BB103490348AFF30F
:10023000008008BD00000000C4090020A8FF0008DD
:10024000154B002B08BF134B9D46A3F5803A0021A8
:100250008B460F461348144A121A0BF051F90F4BF4
:10026000002B00D098470E4B002B00D09847002061
:10027000002104000D000D48002802D00C480CF0AD
:10028000CBFC0BF019F9200029000AF0BBFF0BF0A2
:1002900003F900BF0000080000000000000000009B
:1002A00000000000C00900208C39012019CC000892
:1002B00071DB000807B5094A106851686B4603C333
:1002C0000821684600F05AFA0821684600F016FB3B
:1002D0004FF47A7000F006FFF2E700BFE8FF000875
:1002E00010B594B00023204A0093116C41F0805166
:1002F0001164126C02F080520092009A1B4A019322
:10030000116841F4404111601268022402F4404235
:10031000CDE90D434FF4B47307200192CDE91034B9
:100320000623019A079410220121CDE9120307A8A0
:10033000CDE90A120F9201F0C1FE08B1FFF7BAFF32
:1003400002F064FB0028F9D10F23CDE902344FF409
:10035000A0530490CDE90530052102A801F03CF935
:100360000028EBD114B010BD0038024000700040EE
:1003700038B5054600242B5D01340A2BE4B2FAD1CE
:1003800008F044F82146284600F020FA2146284685
:10039000BDE8384000F0E4BA00B59BB0642200210B
:1003A00001A80BF0ADF800241749009401A80BF048
:1003B00031F9142101A8FFF7DBFF01A80AF060F86A
:1003C0002146024601A80BF09BF8104E104D00F09C
:1003D00083FE1AAC024644F8680D314601A80BF0C2
:1003E000F7F801A80AF04CF80021024601A80BF02A
:1003F00087F8022300222146286808F0FFFB4FF40B
:100400007A7007F037FDE2E74D0001085600010859
:10041000DC09002000B59BB06422002101A80BF08C
:100420006FF800241749009401A80BF0F3F8142189
:1004300001A8FFF79DFF01A80AF022F82146024615
:1004400001A80BF05DF8104D104C2021284602F059
:1004500000FDC82007F00EFD00226946206808F064
:1004600064FD0128F1D1009A094901A80BF0B0F808
:1004700001A80AF005F80021024601A80BF040F897
:10048000E3E700BF6400010800000240DC0900202F
:100490006E0001087047FEE7FEE7FEE7FEE77047E3
:1004A0007047704708B507F0B1FF012801D009F087
:1004B00071FCBDE8084000F007BE704770470000BF
:1004C0002DE9F04F95B07F4CDFF80482DFF804B2DD
:1004D000DFF8049200250295236B43F001032363A8
:1004E000236B03F001030293029B0395236B43F0FC
:1004F00002032363236B03F002030393039B04951E
:10050000236B43F004032363236B03F0040304937E
:10051000049B0595236B43F008032363236B03F0CF
:1005200008030593059B0695236B43F01003236393
:10053000236B03F010030693069B4FF0030A4FF65C
:10054000FF730FA94046CDE90F3A02F009FB0FA94E
:10055000584602F005FB0FA9484602F001FB0FA91F
:10056000594802F0FDFA0FA9584802F0F9FA079528
:10057000236B43F001032363236B03F00103079311
:1005800002260127079B129620230FA940460F93AE
:100590000193CDE9107702F0E3FA019B2A46194650
:1005A000404602F051FC0895236B3B432363236BC9
:1005B0003B4008930722089B13924FF4C0630FA996
:1005C0004046CDE90F360192CDE9117602F0C8FA26
:1005D0000995236B019A3B432363236B13923B40A2
:1005E0000993099B0FA90C234046CDE90F36CDE9AD
:1005F000117602F0B5FA0A95236B33432363236B1C
:10060000139633400A930A9B0FA930235846CDE92D
:100610000F36CDE9117602F0A3FA0B95236B334325
:100620002363236B139633400B930B9B0FA9C023BB
:100630005846CDE90F36CDE9117602F091FA0C95C6
:10064000236B3B432363236B11953B400C930FA912
:1006500040460C9BCDE90FAA02F082FA0D95236B60
:100660003B432363236B3B400D930D9B0FA94FF43A
:10067000106340460F93CDE91066CDE9126702F092
:100680006FFA0E95236B43F004032363236B1296DA
:1006900003F004030E930E9B0FA91B2348460F93F0
:1006A000CDE9107602F05CFA242348460FA9CDE983
:1006B000105512960F9302F053FA284615B0BDE874
:1006C000F08F00BF00380240000C024000100240D2
:1006D00000000240000402400008024013B500235D
:1006E000144A0193516C144C41F010015164526C46
:1006F0001249236102F010020192019AA3614FF4A2
:10070000E132C4E9001220460C22C4E902336261DE
:10071000E36105F0C8F948B92268D36843F02003C3
:10072000D360074B20225A6002B010BD4FF0FF305B
:10073000FAE700BF00380240E43701200010014012
:1007400000E100E00B4B5A6A42F0100210B55A6209
:100750005A6A094C22F0100220464FF400715A6286
:1007600002F0D8FA20464FF48061BDE8104002F054
:10077000D1BA00BF003802400000024008B50A4666
:1007800064230146014805F07CFA08BDE4370120E6
:1007900008B5074B0A46197831B100211970014696
:1007A000044805F028FB08BD4FF0FF30FBE700BF11
:1007B00004000020E437012008B50A4664230146FE
:1007C000014805F0B8FA08BDE4370120054B0144A3
:1007D000884200D170471A681206FCD510F8012B28
:1007E0005A60F5E700100140F8B5094F06460D467E
:1007F0000024AC4202D100242046F8BD00230A2286
:100800003119386808F0FAF90028F5D00134F0E71A
:10081000E009002037B500220121C8208DF807200B
:1008200008F0AAF90C4C2060A0B10C4D20680A22F7
:100830000DF1070108F079FB0128024606D1642377
:100840000DF10701284605F01CFAEFE70A2007F032
:1008500011FBEBE703B030BDE0090020E4370120D5
:1008600013B50023144A0193116C144C41F4003168
:100870001164126C1249236102F400320192019A50
:10088000A3614FF4E132C4E9001220460C22C4E90E
:1008900002336261E36105F006F948B92268D36862
:1008A00043F02003D360074B40225A6002B010BDD2
:1008B0004FF0FF30FAE700BF00380240A4370120B4
:1008C0000044004000E100E00A4B1A6A42F40032A2
:1008D00010B51A621A6A084C22F40032204604212C
:1008E0001A6202F017FA20460821BDE8104002F013
:1008F00011BA00BF003802400000024008B50A46A5
:1009000064230146014805F0BCF908BDA437012065
:1009100008B5074B0A46597831B100215970014694
:10092000044805F068FA08BD4FF0FF30FBE700BF50
:1009300004000020A437012008B50A4664230146BC
:10094000014805F0F8F908BDA437012008B50A46AA
:100950000146024805F06EFA08BD00BFA437012029
:10096000054B0144884200D170471A681206FCD535
:1009700010F8012B5A60F5E7004400400368074A6D
:10098000934203D1064B01221A707047054A9342E5
:1009900002BF034B01225A70704700BF0010014094
:1009A0000400002000440040F8B5094F06460D46FB
:1009B0000024AC4202D100242046F8BD00230A22C4
:1009C0003119786808F01AF90028F5D00134F0E7F9
:1009D000E009002037B500220121C8208DF807204A
:1009E00008F0CAF80C4C6060A0B10C4D60680A2297
:1009F0000DF1070108F099FA0128024606D1642397
:100A00000DF10701284605F03CF9EFE70A2007F051
:100A100031FAEBE703B030BDE0090020A437012034
:100A20002DE9F74F0023384C0093226CDFF8F0B02B
:100A30003649374D42F002022264226CCBF808306E
:100A400002F00202012600924FF6FF780327584673
:100A5000009ACBF81430CBE90053CBE90383C1E90A
:100A60000073C1E90263C1E90433C1E906630B62A3
:100A700003F0E7FD20B14FF0FF3003B0BDE8F08F89
:100A8000DFF8A0904FF4FA4AA9F800A0C5F824A016
:100A900000F022FB1F4D04212860584602F0DFFFC2
:100AA0000028E8D10190236C1B49DFF87CB043F0AB
:100AB00004032364236C194C086203F004030193BC
:100AC000C4E900B0C4E90380A0606061C1E90070BE
:100AD000C1E90260C1E90400C1E906602046019B4A
:100AE00003F0AFFD0028C6D1A9F802A0CBF824A0DE
:100AF00000F0F2FA04216860204602F0B0FF0028FE
:100B0000B9D1C5E90200B8E70038024084380120B5
:100B100000040040E809002060380120243801204A
:100B2000A83801200600002000080040024B1B6886
:100B30001868C0F300107047A8380120024B1B68EA
:100B40001868C0F30010704724380120074B084A8A
:100B5000586A10804FF4FA425A62064B80B29A6883
:100B6000A0F5FA4010449860704700BF00040040B0
:100B700006000020E8090020074B084A586A508008
:100B80004FF4FA425A62064B80B2DA68A0F5FA4096
:100B90001044D860704700BF0008004006000020E5
:100BA000E80900200D4B10B50D4C5A6A22804FF415
:100BB000FA425A6200F090FA2388A3F5FA41094BF1
:100BC0001A6818604EF66023821A4B43402093FB4C
:100BD000F0F33220504393FBF0F010BD00040040CE
:100BE00006000020E80900200D4B10B50D4C5A6A94
:100BF00062804FF4FA425A6200F06EFA6388A3F5FD
:100C0000FA41094B5A6858604EF66023821A4B43EA
:100C1000402093FBF0F33220504393FBF0F010BDE3
:100C20000008004006000020E80900200F4B70B5C6
:100C30000F4C5A6A22804FF4FA425A620D46064619
:100C400000F04AFA23880B49A3F5FA420B68326098
:100C5000C41A4EF660235343402293FBF2F3322230
:100C60006243086093FBF2F32B6070BD0004004008
:100C700006000020E80900200F4B70B50F4C5A6A9F
:100C800062804FF4FA425A620D46064600F024FA9A
:100C900063880B49A3F5FA424B683260C41A4EF6DA
:100CA00060235343402293FBF2F3322262434860B5
:100CB00093FBF2F32B6070BD00080040060000209B
:100CC000E80900202DE9F0410D461949194E1C464E
:100CD0004B6A3380184B90465A6A72804FF4FA423E
:100CE0004A625A62074600F0F7F933887288A3F522
:100CF000FA433B60114BA2F5FA411A68C8F800109C
:100D0000821A18603868322353434EF660225043EB
:100D100040264A4390FBF6F092FBF6F290FBF3F08C
:100D200092FBF3F200B212B228602260BDE8F081BB
:100D3000000400400600002000080040E8090020F0
:100D400070B596B03222002109A80AF0D9FBFFF74E
:100D500067FE002834D0274B03AA03F1100518685A
:100D60005968144603C40833AB422246F7D11868C9
:100D70001B792060237103A809F082FBC1B203A88C
:100D8000FFF7F6FAFFF796FA1B4CFFF7DFFE054672
:100D9000FFF7F2FE064600F09FF92B460246214679
:100DA000009609A80AF014FC09A809F069FBC1B271
:100DB00009A8FFF7DDFA4FF4FA7007F05BF8E4E7F3
:100DC0000E4B03AA03F1080518685968144603C4BA
:100DD0000833AB422246F7D1998818689B79206086
:100DE000A180A37103A809F04BFBC1B203A8FFF7D0
:100DF000BFFAC9E7950001087D000108AA000108B3
:100E000070B586B0FFF70CFEC8B1154B6A4603F10A
:100E10001006154618685968144603C40833B342CF
:100E20002246F7D118681B7920602371284609F003
:100E300027FBC1B22846FFF79BFAFFF73BFA0022D7
:100E40001421012007F098FE064C206130B10223E6
:100E500000226946206907F0D1FEF8E706B070BDB0
:100E600095000108E809002008B5054B014600225D
:100E7000186908F05AF8431E5842584108BD00BF8F
:100E8000E809002030B589B008A9002541F81C5DAB
:100E900003A800F0ADFC069B1BBB00F03BFC1C4B09
:100EA00002951A6C1B4C42F010021A641B6CA56070
:100EB00003F010030293029B174B2360174BB0FB08
:100EC000F3F0013860604FF6FF732046C4E9033544
:100ED000656103F02BFB024638B14FF0FF3009B0DB
:100EE00030BD00F017FC4000D9E70221362001F0A8
:100EF000D7FA362001F008FB204602F0FBFB002861
:100F0000EBD1074B00240025C3E90045E7E700BF0C
:100F100000380240E43801200010004040420F0039
:100F2000000A0020074B586A074B2DE90048D3E917
:100F3000002312EB000B43F1000C58466146BDE85C
:100F4000008800BF00100040000A0020F8B50446E9
:100F5000FFF7E8FF002506460F46FFF7E3FF821B79
:100F600061EB07039D4208BF9442F6D2F8BD044BE3
:100F700000225A62034B00200021C3E900017047A0
:100F800000100040000A0020034B1A68D36823F0C9
:100F90000103D360704700BFE4380120034B1A6897
:100FA000D36843F00103D360704700BFE4380120E9
:100FB0002DE9D0433C2492B02246002103A80AF038
:100FC0009FFAFFF7AFFF064628200F4600F08AF889
:100FD000FFF7A8FF8046801B61EB07014FF47A7290
:100FE000002309F017F833460246CDF80080054982
:100FF00003A80AF0EDFA214603A8FFF7B9F912B0E9
:10100000BDE8D083B90001080A4B0B491B686FF09B
:1010100001022DE930481A61D1E900234FF6FF742F
:1010200012EB040B4FF0000543EB050CC1E900BCCB
:10103000BDE83088E4380120000A0020704770477E
:1010400010B5094B4FF0FF3200241A621C625A623D
:101050005C621A611C615A615C619A619C61FFF774
:10106000EEFF204610BD00BF0038024010B5084B0F
:10107000044618684FF47A73B0FBF3F001F070FA8D
:10108000002221464FF0FF3001F00AFA002010BD87
:101090000C00002008B50B4B1A6842F400721A606D
:1010A0001A6842F480621A601A6842F480721A6008
:1010B000032001F0E3F90F20FFF7D8FFFFF7BEFF91
:1010C000002008BD003C0240024A1368013313604F
:1010D000704700BF20390120014B1868704700BFDE
:1010E0002039012037B50190FFF7F6FF019C631C02
:1010F000054618BF0134FFF7EFFF401BA042FAD3AB
:1011000003B030BD024A136823F002031360704736
:1011100010E000E0024A136843F0020313607047D6
:1011200010E000E00048704700020701014B18681A
:10113000000C7047002004E0024B1868C0F30B005D
:10114000704700BF002004E0024A536843F00103E7
:1011500053607047002004E0024A536823F0010303
:1011600053607047002004E0024A536843F00203D2
:1011700053607047002004E0024A536823F00203E2
:1011800053607047002004E0024A536843F00403B0
:1011900053607047002004E0024A536823F00403C0
:1011A00053607047002004E0014B01221A60704731
:1011B00000042742014B00221A60704700042742B6
:1011C000044B1B680360044B1B684360034B1B68A4
:1011D00083607047107AFF1F147AFF1F187AFF1F71
:1011E00000207047F7B5044610B9012003B0F0BDE8
:1011F0000368D8073BD42368990700F184802368EB
:101200001E0700F1C68023685D072AD500230193DD
:10121000AA4BAB4D1A6C42F080521A641B6C03F05F
:1012200080530193019B2B6843F480732B60FFF77D
:1012300053FF06462B68DA0540F1CD80A3689F4D29
:10124000012B40F0CF802B6F43F001032B67FFF79A
:1012500043FF9A4D064641F288372B6F9B0740F1BA
:10126000E280A269002A40F0E5800020BEE7934BAF
:101270009A6802F00C02042A07D09A6802F00C0265
:10128000082A0AD15B685A0207D58C4B1B689B035E
:10129000B1D56368002BAED1A7E76368874DB3F57E
:1012A000803F11D12B6843F480332B60FFF714FF8C
:1012B000824D06462B689F039DD4FFF70DFF801BD0
:1012C0006428F7D9032091E7B3F5A02F04D12B6848
:1012D00043F480232B60E5E72A6822F480322A60F9
:1012E0002A6822F480222A60002BDFD1FFF7F4FE67
:1012F00006462B6898037FF57EAFFFF7EDFE801B57
:101300006428F6D9DEE76D4B9A6812F00C0F07D00F
:101310009A6802F00C02082A12D15B6859020FD4B5
:10132000664B1A68920703D5E268012A7FF45DAF25
:101330001A68216922F0F80242EAC1021A605EE7E7
:10134000E268604BB2B101221A60FFF7C5FE5B4D47
:1013500006462B689B0707D52B68226923F0F80304
:1013600043EAC2032B604AE7FFF7B6FE801B022860
:10137000EFD9A7E71A60FFF7AFFE504D06462B687E
:101380009F077FF53CAFFFF7A7FE801B0228F6D929
:1013900098E762694C4B7AB101221A60FFF79CFE14
:1013A000464D06466B6F98073FF52DAFFFF794FE4D
:1013B000801B0228F6D985E71A60FFF78DFE3F4DA6
:1013C00006466B6F99077FF51EAFFFF785FE801B02
:1013D0000228F6D976E7FFF77FFE801B02287FF60A
:1013E00029AF6FE7052B04D12B6F43F004032B6764
:1013F00029E72A6F22F001022A672A6F22F00402ED
:101400002A67002B7FF423AFFFF766FE41F288378F
:1014100006462B6F98077FF524AFFFF75DFE801B14
:10142000B842F6D94EE7FFF757FE801BB8427FF669
:1014300014AF47E7214DAB6803F00C03082B3FF4D2
:10144000D4AE224E0023022A33602AD1FFF744FE95
:1014500007462B6899011ED4D4E907321343626A08
:1014600043EA8213E26A43EA0263A26A134C520817
:10147000013A43EA02436B6001233360FFF72CFE1D
:10148000054623689A013FF5F0AEFFF725FE401BA5
:101490000228F6D916E7FFF71FFEC01B0228D8D98D
:1014A00010E7FFF719FE04462B689B017FF5DDAEC0
:1014B000FFF712FE001B0228F6D903E700380240AE
:1014C0000070004000004742800E474260004742E3
:1014D00070B50E4688B015461F4CF0B90190236BCD
:1014E00043F001032363236B079003F0010301938F
:1014F000019B4FF4807C0223CDE903C30323CDE994
:10150000050303A9154801F02BFBA26822F0EC6249
:1015100032432A43A26008B070BD00230293226BBD
:101520000F4842F004022263226B079302F0040288
:101530000292029A4FF400710222CDE903120322B3
:1015400003A9CDE9053201F00BFBA26822F0784235
:10155000324342EAC502DDE70038024000000240A3
:1015600000080240014B01221A6070474C004742BC
:10157000014B00221A6070474C004742134908B5DE
:101580008B6803F00C03042B03D0082B03D0104806
:1015900000E0104808BD4A684B68496813F48003AE
:1015A00014BF0C480A48C1F3881118BF002302F089
:1015B0003F02A1FB000108F02DFD044B5B68C3F363
:1015C000014301335B00B0FBF3F0E3E70038024076
:1015D0000024F40000127A002DE9F0410D46044683
:1015E00010B90120BDE8F081434B1A6802F00F02E8
:1015F0008A4227D321688F072CD4C8073FD43E4B9B
:101600001A6802F00F02AA4264D8226851076AD40D
:10161000130707D5394A2169936823F4604343EAE5
:10162000C103936000F078FC344B354A9B68C3F3E8
:101630000313D35CD840334B18600F20FFF716FD1F
:101640000020CFE7CAB21A701B6803F00F038B4269
:10165000C7D1CFE7294B11F0040F1EBF9A6842F49F
:10166000E0529A600E0742BF9A6842F460429A6064
:101670009A68A06822F0F00202439A60BDE76268AF
:101680001E4B012A1CD11B6813F4003FA9D01B4E2E
:10169000B36823F003031343B360FFF71DFD41F26A
:1016A00088380746B368626803F00C03B3EB820F17
:1016B000A5D0FFF711FDC01B4045F3D9032091E7EA
:1016C000911E01291B6802D813F0007FDEE713F09A
:1016D000020FDBE7EAB21A701B6803F00F03AB429C
:1016E0007FF47FAF91E70549E0688B6823F4E0530E
:1016F00003438B608CE700BF003C0240003802408F
:10170000D0FF00080C000020014B1868704700BF94
:101710000C000020044B054A9B68C3F38223D35C72
:10172000034A1068D840704700380240E0FF0008C4
:101730000C000020044B054A9B68C3F34233D35C82
:10174000034A1068D840704700380240E0FF0008A4
:101750000C0000200F230360244B1A68520337D576
:101760004FF4A02242601B6813F0010318BF01234D
:10177000C3601E4B1A68C2F3C40202611A6F51079C
:101780002DD5052282605B6F13F0010318BF012382
:101790004361164B1A68D2014CBF022201228261BA
:1017A0005A6802F48002C2615A6802F03F02026283
:1017B0005A68C2F3881242625A6802F4403202F553
:1017C0008032D20B82625B68C3F30363C3627047EB
:1017D0001A6812F4803218BF4FF48032C2E71A6FD1
:1017E00012F0010218BF0122CCE700BF003802400E
:1017F0000F2303600B4B9A6802F0030242609A6861
:1018000002F0F00282609A6802F4E052C2609B68C3
:10181000DB0803F4E0530361034B1B6803F00F0381
:101820000B60704700380240003C0240704708B52A
:10183000044BDB681B0604D5FFF7F8FF024B802240
:101840001A7008BD003802400E38024003682DE9C6
:10185000F74313F0010604460BD0AA49866BD1F872
:101860008C2022F0C0623243B6FA86F6C1F88C2092
:1018700076099D070BD5A348E16BD0F88C2022F0A8
:10188000C0520A430029C0F88C2008BF012613F07B
:10189000040512D09B49256BD1F88C20B5F5801F2B
:1018A00022F4401242EA050218BFB5FA85F5C1F8E4
:1018B0008C2012BF6D090025012618070FD591480D
:1018C000616BD0F88C2022F440020A43B1F5800FFE
:1018D000C0F88C2000F00981002908BF0125990675
:1018E00033D500230193874B874F1A6C42F0805207
:1018F0001A641B6C03F080530193019B3B6843F413
:1019000080733B60FFF7E8FB80463B68DA0540F1F7
:10191000EE807C4F3B6F13F4407340F0FB80236CF0
:1019200003F44072B2F5407F764A40F01681916828
:1019300023F0704021F4F81120F4407001439160CD
:10194000116FC3F30B030B4313672368D90642BF20
:101950006E4B94F858201A6023681A0608D5694916
:10196000E06CD1F8942022F440020243C1F89420A4
:101970005F0608D56349A06CD1F8942022F08062FC
:101980000243C1F89420D8050CD55E48616DD0F8AB
:10199000942022F000620A43B1F1006FC0F8942055
:1019A00008BF0125990508D55649606CD1F89420E7
:1019B00022F080520243C1F894205A0500F1D180F0
:1019C000012E40F0DC80524E4E4F00233360FFF773
:1019D00083FB80463B681B0100F125812268D0070C
:1019E00001D5A36B1BB1910715D5E36B9BB9454995
:1019F000D1F88430D1F8840003F4403300F07060F3
:101A0000034360680343A06843EA8013606943EAC4
:101A10000073C1F88430530703D5236BB3F5801FDF
:101A200005D0170720D5636BB3F5800F1CD135495E
:101A3000D1F88430D1F8840003F4403300F0E04062
:101A4000034360680343A06843EA8013206943EAC4
:101A50000063C1F88430D1F88C00A36A20F01F0025
:101A6000013B0343C1F88C3050051BD5236DB3F106
:101A7000005F17D123486768D0F88410D0F884300D
:101A800003F0E0433B43A768C1F30141013143EA5E
:101A9000871343EA4163E1684908013943EA014396
:101AA000C0F88430110511D52369A2681B0643EAEA
:101AB000821362681343626943EA0273E268520860
:101AC000013A43EA02430F4AC2F8843001233360EB
:101AD000FFF702FB0B4E074633681A0153D4FFF79A
:101AE000FBFAC01B0228F7D908E00126F7E6FFF74A
:101AF000F3FAA0EB080002287FF607AF032003B03B
:101B0000BDE8F0830038024000700040E011474219
:101B100068004742226C02F440729A423FF4FFAEE2
:101B20003B6F4B4A0121116023F440730021116087
:101B30003B673B6FDB077FF5F2AEFFF7CDFA41F273
:101B4000883980463B6F98073FF5E9AEFFF7C4FA46
:101B5000A0EB08004845F5D9D0E7916821F4F811C9
:101B6000EDE63C48216DD0F8942022F000520A4363
:101B7000B1F1005FC0F894207FF422AF23E7B3F502
:101B8000006F3FF420AF012D4BD1334D314E002378
:101B90002B60FFF7A1FA074633689B004BD42168FE
:101BA0004E0701D5236B1BB108071AD5636BC3B968
:101BB000284AA069D2F8883003F440330343E0692F
:101BC00043EA8013606A43EA0063C2F88830D2F8BF
:101BD0008C30E06A23F4F853013843EA0023C2F85A
:101BE0008C30CA0514D5636DB3F1006F10D119495B
:101BF000A269D1F8883003F070631343E26943EAC5
:101C00008213226A5208013A43EA0243C1F888303B
:101C100001232B60FFF760FA0E4C054623689B00FA
:101C20000FD500206BE7FFF757FAA0EB080002285A
:101C30007FF6D0AE62E7FFF74FFAC01B0228ABD9A0
:101C40005CE7FFF749FA401B0228E7D956E700BFD7
:101C5000400E4742003802407000474240F2FF7396
:101C600003603D4BD3F8842002F03F024260D3F87A
:101C70008420C2F388128260D3F88420C2F3014228
:101C800001325200C260D3F88420C2F303620261C1
:101C9000D3F88420C2F302724261D3F8882002F0A4
:101CA0003F028261D3F88820C2F38812C261D3F860
:101CB0008820C2F30142013252000262D3F8882028
:101CC000C2F303624262D3F88C2002F01F028262E8
:101CD000D3F88C20C2F30422C262D3F88C2002F421
:101CE00040120263D3F88C2002F440024263D3F81E
:101CF0008C2002F0C0628263D3F88C2002F0C052C4
:101D0000C26399681A6F01F4F81102F440720A4331
:101D10000264D3F8942002F080628264D3F89420A5
:101D200002F44002C264D3F8942002F000624265DB
:101D3000D3F8942002F080524264D3F8942002F049
:101D400000520265D3F88C3013F0807318BF012362
:101D500080F85830704700BF00380240013807282B
:101D600017D8DFE800F07AA5160416161604604AA4
:101D7000D2F88C3003F47003B3F5401F114600F025
:101D8000B48008D8B3F5801F0ED0B3F5001F47D03C
:101D900033B300207047B3F5000F41D0B3F5400FC7
:101DA00053D0B3F5800FF4D14B68514AD1F8840079
:101DB000D2F884105B0200F03F0054BF4D4B4E4BF5
:101DC000B3FBF0F3D2F88400C0F388105843C1F39A
:101DD0000363B0FBF3F0D2F88C3003F01F031BE079
:101DE0005368D2F888005A02414A58BF414BD2F892
:101DF000881048BF404B00F03F00B3FBF0F3D2F82F
:101E00008800C0F388105843C1F30363B0FBF3F0BC
:101E1000D2F88C30C3F304230133B0FBF3F07047E6
:101E20004B68334A4868590200F03F0054BF314BB9
:101E3000314BB3FBF0F350685268C2F3881253433E
:101E4000C0F30270B3FBF0F0704753682A4813F4F4
:101E5000800F284B08BF18467047254BD3F88C20BD
:101E600002F0C062B2F1007F3FD00AD8002A90D1C0
:101E70005A68D3F88400520200F03F000FD51E4B81
:101E80000EE0B2F1806F22D0B2F1C06F81D15B68F9
:101E9000184813F4800F184B18BF18467047154B9D
:101EA0001349B3FBF0F3D1F88420D1F88400C4E7E0
:101EB0000F4BD3F88C2002F0C052B2F1006F14D057
:101EC000D4D9B2F1805F02D0B2F1C05FDEE75A68C8
:101ED00007495868530200F03F004CBF064B054BC2
:101EE0004A68B3FBF0F34868A7E70448704700BFAF
:101EF000003802400024F40000127A000080BB0089
:101F0000044B1A6F01280CBF42F0080222F00802AD
:101F10001A67704700380240204908B58B6803F003
:101F20000C03082B07D00C2B20D01D481D4A042B76
:101F300018BF104608BD4A684B68496813F480030F
:101F400014BF17481748C1F3881118BF002302F0C7
:101F50003F02A1FB000108F05DF8104B5B68C3F382
:101F6000014301335B00B0FBF3F0E3E74A684B68E1
:101F7000496813F4800314BF09480A48C1F3881163
:101F800018BF002302F03F02A1FB000108F042F855
:101F9000024B5B68C3F30273E5E700BF0038024001
:101FA00000127A000024F40070B5404CFFF794F85A
:101FB000236843F00103054623602368980750D542
:101FC000236843F080032360FFF786F80023A360B3
:101FD000364C054641F28836A36813F00C0F47D102
:101FE000FFF77AF8236823F4502323602F4C05462B
:101FF0002368990342D4FFF76FF8236823F08073B6
:1020000023602A4C054623689A013DD4FFF764F803
:10201000236823F080632360244C054623681B015A
:1020200038D4FFF759F8236823F0805323601F4CFE
:102030000546236813F0005332D11D4A6260C4F88C
:10204000842002F16042C4F88820E3606367194B82
:10205000194A1A600F20FFF709F8003018BF012055
:1020600005E0FFF739F8401B0228A6D9032070BD10
:10207000FFF732F8401BB042AED9F7E7FFF72CF874
:10208000401B6428B4D9F1E7FFF726F8401B02286B
:10209000B9D9EBE7FFF720F8401B0228BED9E5E7E6
:1020A000FFF71AF8401B0228C3D9DFE700380240C7
:1020B000103000240C0000200024F4000368F7B561
:1020C000DE0704463BD423689D0700F19280236815
:1020D0001E0700F1DC8023685D072AD500230193E9
:1020E000934B944D1A6C42F080521A641B6C03F0AF
:1020F00080530193019B2B6843F480732B60FEF7A0
:10210000EBFF06462B68DA0540F1E380A368884DB3
:10211000012B40F0E5802B6F43F001032B67FEF7A6
:10212000DBFF834D064641F288372B6F9B0740F15A
:10213000F880A269002A40F0038100201EE07C4B59
:102140009A6802F00C02042A10D09A6802F00C027D
:10215000082A02D15B68580208D4754B9A6802F0CD
:102160000C020C2A0CD15A68510209D5704B1B681D
:102170009A03A8D56368002BA5D1012003B0F0BD58
:102180006268B2F5803F11D11A6842F480321A6059
:10219000FEF7A2FF664D06462B689B0393D4FEF71D
:1021A0009BFF801B6428F7D90320E7E7604DB2F559
:1021B000A02F2B6807D143F480232B602B6843F4B6
:1021C00080332B60E4E723F480332B602B6823F407
:1021D00080232B60002ADBD1FEF77EFF06462B68AA
:1021E0009F037FF570AFFEF777FF801B6428F6D959
:1021F000DAE74F4B9A6812F00C0F10D09A6802F091
:102200000C02082A02D15B68580208D5484A936834
:1022100003F00C030C2B11D1536859020ED4444B1C
:102220001A68920702D5E268012AA6D11A682169C4
:1022300022F0F80242EAC1021A6048E7E2683E4B27
:10224000B2B101221A60FEF747FF394D06462B68EE
:102250009B0707D52B68226923F0F80343EAC203E2
:102260002B6034E7FEF738FF801B0228EFD99BE78D
:102270001A60FEF731FF2E4D06462B689F077FF54B
:1022800026AFFEF729FF801B0228F6D98CE762698A
:102290002A4B7AB101221A60FEF71EFF244D064632
:1022A0006B6F98073FF517AFFEF716FF801B0228EC
:1022B000F6D979E71A60FEF70FFF1D4D06466B6FE2
:1022C00099077FF508AFFEF707FF801B0228F6D9B4
:1022D0006AE7FEF701FF801B02287FF613AF63E772
:1022E000052B04D12B6F43F004032B6713E72A6FF0
:1022F00022F001022A672A6F22F004022A67002BCB
:102300007FF40DAFFEF7E8FE41F2883706462B6FEB
:1023100098077FF50EAFFEF7DFFE801BB842F6D9B7
:1023200042E7FEF7D9FE801BB8427FF6FEAE3BE7E0
:10233000003802400070004000004742800E4742D3
:10234000234DAB6803F00C03082B3FF416AF214E6E
:102350000023022A33602DD1FEF7BEFE07462B680C
:10236000990121D4D4E907321343626A43EA821304
:10237000E26A43EA0263226B43EA0273A26A144CE4
:102380005208013A43EA02436B6001233360FEF7CF
:10239000A3FE054623689A013FF5CFAEFEF79CFEEB
:1023A000401B0228F6D9FFE6FEF796FEC01B022866
:1023B000D5D9F9E6FEF790FE04462B689B017FF520
:1023C000BCAEFEF789FE001B0228F6D9ECE600BF82
:1023D00000380240600047420F230360264B1A6812
:1023E00052033BD54FF4A02242601B6813F0010357
:1023F00018BF0123C360204B1A68C2F3C4020261F4
:102400001A6F510731D5052282605B6F13F001030B
:1024100018BF01234361184B1A68D2014CBF022236
:10242000012282615A6802F48002C2615A6802F095
:102430003F0202625A68C2F3881242625A6802F48A
:10244000403202F58032D20B82625A68C2F30362D4
:10245000C2625B68C3F30273036370471A6812F4C5
:10246000803218BF4FF48032BEE71A6F12F00102BB
:1024700018BF0122C8E700BF00380240074AD368EE
:1024800023F4E0631B041B0C43F0BF63000243F41E
:10249000003300F4E0600343D360704700ED00E0D8
:1024A000174B70B5DC68C4F30224C4F10705042D92
:1024B00004F1040328BF04254FF0FF36062B06FA6B
:1024C00005F38CBF033C002421EA0303A34006FA72
:1024D00004F422EA0404002843EA0403A8BF00F13C
:1024E00060404FEA0313BCBF00F00F00054ADBB2A7
:1024F000AABF00F56140135480F8003370BD00BFDF
:1025000000ED00E014ED00E04209012300F01F009F
:1025100003FA00F0014B43F82200704700E100E0AD
:102520004309012200F01F0002FA00F02033024AA2
:1025300042F82300704700BF00E100E0BFF34F8F77
:102540000549064BCA6802F4E0621343CB60BFF34F
:102550004F8F00BFFDE700BF00ED00E00400FA056B
:102560000138B0F1807F0AD2064B074A5860F0214B
:1025700082F823100020072298601A60704701201B
:10258000704700BF10E000E000ED00E0BFF35F8F98
:10259000044A536A23F480335362034B00225A6087
:1025A000704700BF00ED00E090ED00E0064B074AE9
:1025B00040F001005860536A43F480335362BFF324
:1025C0004F8FBFF36F8F704790ED00E000ED00E09C
:1025D000124A437810B593600178D9B14368D3604B
:1025E000C37A047B1B0643EA04730B43817A43EAF4
:1025F000C143417B43EA8143817B43EA4143C17B41
:1026000043EA0143417A43EA0123017A43EA410361
:10261000136110BDD1601161FBE700BF90ED00E0D8
:10262000024BD868C0F30220704700BF00ED00E005
:1026300070B50028AEBF00F1604000F00F00124CF2
:1026400001F00701AABF00F56140205C90F800038B
:10265000C1F107040D1D042C28BF0424062D4FEAE8
:1026600010108CBF033900214FF0FF3520FA01F61E
:1026700005FA04F405FA01F126EA040420EA01004F
:102680001460186070BD00BF14ED00E04309012222
:1026900000F01F0002FA00F04033024A42F8230023
:1026A000704700BF00E100E04309054A403300F0F5
:1026B0001F0052F8233023FA00F000F001007047A9
:1026C00000E100E04309012200F01F0002FA00F0DF
:1026D0006033024A42F82300704700BF00E100E087
:1026E0004309054A803300F01F0052F8233023FAD3
:1026F00000F000F00100704700E100E0044B1A68B0
:1027000004280CBF42F0040222F004021A60704751
:1027100010E000E0704708B5FFF7FCFF08BD00BF00
:10272000044B1A6A42F080521A621A6A22F08052EE
:102730001A62704700380240014B01221A6070474C
:1027400020000E42014B00221A60704720000E420A
:10275000194A0168136823F0E0030B431360174B19
:102760005A6822F480325A601A6822F480321A6061
:102770009A6822F480329A60DA6822F48032DA6051
:102780004268D10342BF196841F480311960900357
:1027900042BF596841F480315960D10741BF0749B0
:1027A0008B6843F480338B60930741BF034AD3683F
:1027B00043F48033D360704700700040003C014018
:1027C000014B01221A60704710000E42014B00229B
:1027D0001A60704710000E42024A53681843506056
:1027E000704700BF00700040024A536823EA0000AF
:1027F0005060704700700040064A1369012923F0B9
:102800000403136101D130BF704740BF20BF20BF18
:10281000704700BF00ED00E00B4A136823F003038C
:1028200018430A4B10601A69012942F004021A6128
:1028300005D130BF1A6922F004021A61704740BF07
:1028400020BF20BFF6E700BF0070004000ED00E0B1
:10285000054A136843F002031360044A136943F006
:102860000403136130BF70470070004000ED00E0CA
:10287000704710B5044C6369DB0304D5FFF7F8FF1C
:102880004FF48033636110BD003C0140024A13697C
:1028900043F002031361704700ED00E0024A136940
:1028A00023F002031361704700ED00E0024A136950
:1028B00043F010031361704700ED00E0024A136912
:1028C00023F010031361704700ED00E038B50A4BA8
:1028D0000A4C01221A60FEF7FFFB054663681B07DE
:1028E00001D5002038BDFEF7F7FB401BB0F57A7F1D
:1028F000F4D90320F6E700BFA4000E4200700040A8
:1029000038B50A4B0A4C00221A60FEF7E5FB054673
:10291000606810F0080000D138BDFEF7DDFB401BF9
:10292000B0F57A7FF4D90320F6E700BFA4000E4289
:1029300000700040014B01221A60704724000E42D3
:10294000014B00221A60704724000E42024B1868A7
:1029500000F44040704700BF00700040F7B5284CBD
:1029600000220092236C43F080532364236C03F015
:1029700080530093009BA36803F00C03082B0646CA
:102980003BD0204D2A60FEF7A7FB0746236813F0D3
:1029900000731DD101931C4B194C186820F4404062
:1029A000304318601B6803F440430193019B0123EB
:1029B0002B60FEF791FB054623689A0110D5FEF7C0
:1029C0008BFB114C054663685B040FD5002005E0C6
:1029D000FEF782FBC01B0228D8D9032003B0F0BD4C
:1029E000FEF77AFB401B0228E6D9F6E7FEF774FBF8
:1029F000401BB0F57A7FE6D9EFE70120EEE700BF94
:102A000000380240600047420070004037B50023A4
:102A10000193184B184C1A6C42F080521A641B6CCC
:102A200003F080530193019B144B01221A60FEF7BF
:102A300053FB05466368DA030BD5114B0E4C01229C
:102A40001A60FEF749FB054663689B030AD5002020
:102A500006E0FEF741FB401BB0F57A7FEAD9032080
:102A600003B030BDFEF738FB401BB0F57A7FEBD9E1
:102A7000F5E700BF003802400070004040000E4201
:102A800044000E4237B5184B184C002101911A6CC6
:102A900042F080521A641B6C03F080530193019B37
:102AA000134B1960FEF718FB0546636813F40033F7
:102AB00010D1104A0D4C1360FEF70EFB05466068FE
:102AC00010F480300DD0FEF707FB401BB0F57A7F85
:102AD000F5D905E0FEF700FB401BB0F57A7FE4D99D
:102AE000032003B030BD00BF00380240007000403A
:102AF00044000E4240000E4282B000230193154B69
:102B00001A6C42F080521A641B6C134A03F0805313
:102B10000193019B536843F440235360136843F4CB
:102B200040231360136823F4406323F00303184326
:102B30000A4B10601A69012942F004021A6107D198
:102B400030BF1A69002022F004021A6102B07047F7
:102B500020BFF6E7003802400070004000ED00E0C2
:102B60002DE9F04F85B00B68DFF8A081654ADFF8EA
:102B7000A091019300234FF0010C019C0CFA03FC7F
:102B800004EA0C06B44540F0AA804C6824F0100713
:102B9000022F16D14FEAD30A00EB8A0A03F0070B83
:102BA000DAF820504FEA8B0B4FF00F0E0EFA0BFEA7
:102BB00025EA0E0E0D6905FA0BF545EA0E05CAF871
:102BC00020504FEA430A0325D0F800B005FA0AF571
:102BD000ED4304F0030E05EA0B0B0EFA0AFE013F6B
:102BE0004EEA0B0E012FC0F800E011D8876807EA03
:102BF000050BCF6807FA0AFE4EEA0B0787604768A5
:102C000027EA0C0CC4F300179F4047EA0C07476003
:102C1000C7683D408F6807FA0AF73D43C560E50085
:102C20005DD54FF0000BCDF80CB0D8F84470364DA0
:102C300047F48047C8F84470D8F8447007F48047D8
:102C40000397039F23F0030707F1804707F59C379D
:102C500003F0030ED7F808A04FEA8E0E4FF00F0CCA
:102C60000CFA0EFCA8422AEA0C0C3FD005F5806550
:102C7000A8423DD005F58065A8423BD005F58065AA
:102C8000A84239D005F58065A84237D0484537D0ED
:102C900005F50065A84214BF0725062505FA0EF5BF
:102CA00045EA0C05BD601568F74314F4803F0CBF7E
:102CB0003D4035431560556814F4003F0CBF3D405E
:102CC00035435560956814F4801F0CBF3D40354373
:102CD0009560D568A40254BF3D403543D5600133AB
:102CE000102B7FF448AF05B0BDE8F08F5D46D5E707
:102CF0000125D3E70225D1E70325CFE70425CDE75A
:102D00000525CBE7003C01400000024000380240AE
:102D1000001402402DE9F04F434EDFF81491DFF824
:102D200014A1DFF814B100244FF0010808FA04F2EE
:102D300032EA010366D103236500076803FA05F54B
:102D4000ED4324FA03FE2F4000EB8E0E0760DEF801
:102D5000207004F0070C3B464FEA8C0C0F2707FA53
:102D60000CFC23EA0C0CCEF820C0D0F808C02F4B86
:102D700005EA0C0CC0F808C0D0F804C0D24302EA3F
:102D80000C0CC0F804C0D0F80CC005EA0C05C560F6
:102D900024F0030505F1804505F59C3504F0030C8E
:102DA000D5F808E04FEA8C0C07FA0CF7984207EACE
:102DB0000E0E2CD003F5806398422AD003F5806371
:102DC000984228D003F58063984226D0484526D003
:102DD000504526D058450CBF0623072303FA0CF3B1
:102DE00073450FD1AB6823EA0707AF603368134020
:102DF0003360736813407360B3681340B360F36863
:102E00001A40F2600134102C90D1BDE8F08F0023FD
:102E1000E4E70123E2E70223E0E70323DEE70423FC
:102E2000DCE70523DAE700BF003C01400000024078
:102E300000100240001402400018024003691942C9
:102E400014BF0120002070470AB181617047090456
:102E5000FBE7436959404161704782B04FF48033CA
:102E60000193019B0B430193019BC361C161019BD2
:102E7000C361C3690193C06980F48030C0F300402E
:102E800002B07047704708B5034B5969014202D040
:102E90005861FFF7F7FF08BD003C01400368DAB254
:102EA00023F47F7323F003031821103AB2FBF1F2ED
:102EB0000449032A88BF0433895C8365C165806D3A
:102EC000704700BFC8FF000870B50446FEF704F95C
:102ED0000546002C71D0002384F834302268022388
:102EE00084F83530136823F00103136021680B6800
:102EF000D8073CD40B68324DA0691D40D4E90123AA
:102F00001343E26813432269134362691343E2697E
:102F100003431343226A1343626A042A43EA050304
:102F200002BFD4E90B5635432B430B604B69042A8F
:102F300023F0070343EA02030BD1A26AE56A1343B5
:102F40003DB1F8B9012A2DD001D3022A01D1EA01FD
:102F50002BD44B612046FFF7A1FFE26D3F23934046
:102F6000836000200123606584F8353009E0FEF7B6
:102F7000B3F8401B0528B9D920236365032084F8E2
:102F8000350070BDB0F5005F13D1032AE1D801A070
:102F900050F822F0AB2F00084F2F0008AB2F00088D
:102FA000A52F0008B5F1C07FD3D140236365012070
:102FB000E5E7022AF9D9032AC8E70120E1E700BFC3
:102FC0003F8010F038B50546F0B190F83540E4B2D6
:102FD000022C17D003681A6822F001021A6000243C
:102FE00021221C605C609C60DC601C615A61FFF700
:102FF00055FFEA6D3F23934083606C6585F834404C
:1030000085F83540204600E0012038BD30B590F805
:103010003440012C22D0012480F8344090F835400F
:10302000012C4FF000054FF0020415D180F8354017
:1030300004684565256825F48025256063608368FC
:10304000402B0BBFA260A160E160E260236843F007
:1030500001032360002030BD80F834500220FAE7DD
:1030600070B590F83440012C36D0012480F83440FB
:1030700090F83540866D012C4FF000054FF00204AA
:1030800028D180F8354004684565256825F48025F9
:10309000256063608368402B0EBFA260A160E26080
:1030A000C26D08BFE1603F239340B360236843F0E3
:1030B00016032360636943F080036361036C1BB1F3
:1030C000236843F008032360236843F0010323606F
:1030D000002070BD80F834500220FAE770B5044635
:1030E000856DFDF7F9FF94F83530022B064606D0C2
:1030F00080236365002384F83430012070BD236889
:103100001A6822F016021A605A6922F080025A6187
:10311000226C0AB9A26C1AB11A6822F008021A606D
:103120001A6822F001021A602368186810F0010082
:1031300009D1E26D3F239340AB60012384F8340052
:1031400084F83530DAE7FDF7C7FF801B0528EBD997
:10315000202363650320002384F8343084F835008D
:10316000CCE790F83530022B03D080234365012053
:1031700070470268052380F83530136823F0010397
:103180001360002070472DE9F84F04460D46904625
:10319000FDF7A2FF94F83530022B814607D080233B
:1031A0006365002384F834300120BDE8F88F23687C
:1031B0001B68D90503D54FF480736365F4E7E76DA9
:1031C0000DBB2023A66D316803FA07F74FF0080AFC
:1031D0004FF0010B0F4202D1636DDA0715D5636D15
:1031E000002B46D0636DDB0743D52046FFF776FF03
:1031F000E26D30239340B3600120002384F8343023
:1032000084F83500D1E71023DCE7B8F1FF3F12D096
:10321000B8F1000F09D120236365002384F834300E
:10322000012384F835300320BFE7FDF755FFA0EBFD
:1032300009004045EFD8E36D31680AFA03F20A420B
:103240001FBF606D40F001006065B2600BFA03F2D1
:103250000A421FBF606D40F002006065B260042248
:1032600002FA03F30B421FBF606D10436065B36049
:10327000B0E7E26D4DB930239340B360012384F889
:10328000345084F8353000208FE710239340B3602A
:10329000F9E7F7B5002301935B4B856D1F68C36D9C
:1032A0002E6808229A40324204460CD00168086811
:1032B000400708D5086820F004000860AA60626D25
:1032C00042F00102626501229A40324208D0216830
:1032D0004969090641BFAA60626D42F00202626557
:1032E00004229A40324208D021680968880741BF09
:1032F000AA60626D42F00402626510229A40324276
:1033000010D02368196809070CD5AA601A68500301
:1033100037D51B68190301D4236C00E0A36C0BB1F3
:1033200020469847E16D20228A4032423AD02368F5
:103330001868C60636D5AA6094F83520052A1A689A
:1033400027D122F016021A605A6922F080025A61CF
:10335000226C0AB9A26C1AB11A6822F008021A602B
:103360003F238B40AB60002384F83430012384F882
:103370003530236D002B45D0204603B0BDE8F0402A
:1033800018471A68D2055EBF1A6822F008021A6050
:10339000C2E7500327D51B68190331D4636C0BB106
:1033A00020469847636D6BB3636DDA0719D5052323
:1033B000226884F83530136823F0010313604FF45A
:1033C0001653B7FBF3F7019B0133BB42019302D8BD
:1033D0001368DB07F7D4002384F83430012384F822
:1033E0003530E36CC6E71A6812F4807208D11968A8
:1033F00021F010011960012384F8342084F835305D
:10340000E36BCCE703B0F0BD0C00002090F8343043
:10341000012B10B504461FD0012380F8343090F8FA
:103420003500984213D1052905D8DFE801F00306DD
:10343000080A0C0EE26300200AE02264FBE76264E3
:10344000F9E7A264F7E7E264F5E72265F3E71846D7
:10345000002384F8343010BD0220FCE790F83420BB
:10346000012A034626D093F835200120824283F8B2
:1034700034000AD1002206291AD8DFE801F0040A34
:103480000C0E10171200DA630020002283F834209B
:1034900070471A64F8E75A64F6E79A64F4E7DA6466
:1034A000F2E7C3E90F22C3E91122DA641A65EBE7F8
:1034B0000120EAE70220704790F835007047406D20
:1034C000704700BF036A23F001030362036A70B50B
:1034D000446882690D6822F073022A438D6823F0E4
:1034E00002032B430C4DA84203D005F58065A8428A
:1034F0000BD1CD6823F008032B43D1E9055624F402
:103500004074354323F004032C43446082614A68CD
:103510004263036270BD00BF00000140036A23F4F0
:1035200080730362036A70B54468C2690D6822F053
:1035300073022A438D6823F4007343EA05230D4D7B
:10354000A84203D005F58065A8420DD1CD6823F4CB
:10355000006343EA0523D1E9055624F4405435437A
:1035600023F4806344EA05144460C2614A68C2637C
:10357000036270BD00000140036A23F480530362BC
:10358000036A30B54468C2690D6822F4E64242EA33
:1035900005228D6823F4005343EA0533084DA84201
:1035A00003D005F58065A84204D14D6924F4804418
:1035B00044EA85144460C2614A680264036230BD13
:1035C00000000140036848689A6822F0700230B534
:1035D00002430C6822F00702224350289A6021D04F
:1035E00002D8402810D030BD60282DD07028FAD1E4
:1035F000D1E9024298680969224320F47F4042EAF7
:10360000012202439A60EEE7186A1A6A096922F0F9
:1036100001021A629A6922F0F00242EA01129A61EA
:103620001862E0E788680D69196A1C6A24F00104D1
:103630001C629A6921F00A0122F0F00242EA0512A6
:1036400001439A611962CEE7186A8C680D6920F00F
:103650001000186299691A6A21F4704122F0A002E0
:1036600041EA053142EA041299611A62BBE77047E8
:103670007047022310B580F839300368196A41F2A7
:1036800011121142044608D1196A40F24442114213
:1036900002BF1A6822F001021A602046FFF7E8FF15
:1036A000002084F8390084F8380010BD0268022335
:1036B00080F83930136843F001031360012380F868
:1036C000393000207047022380F839300368196AC6
:1036D00041F21112114208D1196A40F244421142DA
:1036E00002BF1A6822F001021A60012380F8393003
:1036F000002070470368DA6842F00102DA601A6855
:1037000042F001021A60002070470368DA6822F074
:103710000102DA60196A41F21112114208D1196AE4
:1037200040F24442114202BF1A6822F001021A60BC
:103730000020704710B5044690F83900C0B2022846
:1037400013461CD094F83900C0B2012804D101B945
:10375000AAB9022284F83920E069094AC263094AF9
:10376000C26422682C32FFF77BFC2368DA6842F4DB
:103770008072DA601A6842F001021A60002010BDFF
:1037800051420008374400080368DA6822F4807266
:10379000DA60196A41F21112114208D1196A40F235
:1037A0004442114202BF1A6822F001021A6001234A
:1037B00080F839300020704770477047022310B5F9
:1037C00080F839300368196A41F211121142044637
:1037D00008D1196A40F24442114202BF1A6822F02D
:1037E00001021A602046FFF7E8FF002084F8390044
:1037F00084F8380010BD70477047022310B580F878
:1038000039300368196A41F211121142044608D195
:10381000196A40F24442114202BF1A6822F00102C2
:103820001A602046FFF7E8FF002084F8390084F88A
:10383000380010BD70477047022310B580F839304A
:103840000368196A41F211121142044608D1196A3B
:1038500040F24442114202BF1A6822F001021A608B
:103860002046FFF7E8FF002084F8390084F838008C
:1038700010BD70477047022310B580F839300368D7
:10388000196A41F211121142044608D1196A40F234
:103890004442114202BF1A6822F001021A60204617
:1038A000FFF7E8FF002084F8390084F8380010BDE5
:1038B00003681A6A22F001021A621A6A42F00102CF
:1038C0001A621A6A22F010021A621A6A42F0100290
:1038D0001A62064A934203D002F58062934203D1F2
:1038E0005A6C42F400425A640020704700000140C4
:1038F00003681A6A22F001021A621A6A1A621A6AC4
:1039000022F010021A621A6A1A62124A934203D013
:1039100002F5806293420DD1196A41F211121142EF
:1039200008D1196A40F24442114202BF5A6C22F493
:1039300000425A64196A41F21112114208D1196AFF
:1039400040F24442114202BF1A6822F001021A609A
:1039500000207047000001400368DA6842F002026C
:10396000DA60DA6842F00402DA601A6A22F00102D0
:103970001A621A6A42F001021A621A6A22F01002EE
:103980001A621A6A42F010021A62064A934203D07F
:1039900002F58062934203D15A6C42F400425A64A9
:1039A00000207047000001400368DA6822F002023C
:1039B000DA60DA6822F00402DA601A6A22F00102A0
:1039C0001A621A6A1A621A6A22F010021A621A6AD3
:1039D0001A62124A934203D002F5806293420DD1DB
:1039E000196A41F21112114208D1196A40F2444297
:1039F000114202BF5A6C22F400425A64196A41F221
:103A00001112114208D1196A40F24442114202BF18
:103A10001A6822F001021A6000207047000001407D
:103A200070477047022310B580F839300368196A6F
:103A300041F211121142044608D1196A40F244427F
:103A4000114202BF1A6822F001021A602046FFF7F5
:103A5000E8FF002084F8390084F8380010BD0368BE
:103A600089B1042907D01A6A22F001021A621A6A7F
:103A700042F001021A621A6A22F010021A621A6AED
:103A800042F0100206E01A6A22F001021A621A6A73
:103A900042F001021A621A6842F001021A60002024
:103AA0007047036859B1042905D01A6A22F001024F
:103AB0001A621A6A1A621A6A22F0100202E01A6A7C
:103AC00022F001021A621A6A1A62196A41F211128C
:103AD000114208D1196A40F24442114202BF1A68E9
:103AE00022F001021A60002070470368B1B1042976
:103AF00026D01A6A22F001021A621A6A42F0010202
:103B00001A621A6A22F010021A621A6A42F010024D
:103B10001A62DA6842F00202DA6019E01A6A22F0E8
:103B200001021A621A6A42F001021A62DA6842F06D
:103B30000202DA601A6842F001021A60002070473F
:103B40001A6A22F010021A621A6A42F010021A620D
:103B5000DA6842F00402ECE703681A6AD9B922F085
:103B600001021A621A6A1A62DA6822F00202DA6044
:103B7000196A41F21112114208D1196A40F2444205
:103B8000114202BF1A6822F001021A60012380F874
:103B9000393000207047042908D122F010021A623F
:103BA0001A6A1A62DA6822F00402E0E722F00102DF
:103BB0001A621A6A1A621A6A22F010021A621A6AE1
:103BC0001A62DA6822F00202DA60EBE72DE9F041CE
:103BD000044690F83900BDF81850C0B202280E46CD
:103BE0001F467DD094F83930012B06D102B10FB9B0
:103BF000002D74D1022384F83930042E1FD0182EE2
:103C000039D0D6B9206A374B2168C363364BC364B9
:103C100034312B46FFF724FA2368DA6842F4007245
:103C2000DA601A6842F001021A601A6A22F0010290
:103C30001A621A6A42F001021A62002050E0606AB9
:103C4000284B2168C363284BC3643A462B4638315E
:103C5000FFF706FA2368DA6842F48062DA601A68CD
:103C600042F001021A601A6A22F010021A621A6AFD
:103C700042F01002E0E7206A2168DFF868801A4EFF
:103C8000C0F83C802B463431C664FFF7E9F9606A1E
:103C90002168C0F83C802B463A46C6643831FFF7AD
:103CA000DFF923681A6842F001021A601A6A22F0EA
:103CB00001021A621A6A42F001021A621A6A22F0BA
:103CC00010021A621A6A42F010021A62DA6842F4AA
:103CD0000072DA60DA6842F48062DA60ADE70120EF
:103CE000BDE8F081654200083744000803681A6A9D
:103CF000D9B922F001021A621A6A1A62DA6822F449
:103D00000072DA60196A41F21112114208D1196A7F
:103D100040F24442114202BF1A6822F001021A60C6
:103D2000012380F8393000207047042908D122F09F
:103D300010021A621A6A1A62DA6822F48062E0E7F4
:103D400022F001021A621A6A1A621A6A22F010023A
:103D50001A621A6A1A62DA6822F40072DA60EBE711
:103D6000F8B5044690F83900069DC0B202280F4607
:103D7000164619462BD094F83900C0B2012804D158
:103D800003B925BB022384F83930B6F5006F2268E9
:103D90002ED01DD8B6F5007F25D0B6F5806F25D082
:103DA000B6F5807F09D1E069154BC363154BC36439
:103DB0002B0A01334C32FFF753F923683D439D64CE
:103DC000DA681643DE60012384F839300020F8BD3C
:103DD000B6F5005F0ED0B6F5804F0ED0B6F5805F19
:103DE000EBD1E06A00E0206A074BDEE7606AFBE7A0
:103DF000A06AF9E7206B054BD7E7606B044BD4E76B
:103E00005142000837440008A3420008EF57000859
:103E100025440008B1F5006F38B505460C4622D0A0
:103E200012D8B1F5007F1AD0B1F5806F19D0B1F575
:103E3000807F02D1C069FFF751F92A68D36823EA6D
:103E40000404D460002038BDB1F5005F0DD0B1F599
:103E5000804F0CD0B1F5805FEFD1C06AEBE7006A0C
:103E6000E9E7406AE7E7806AE5E7006BE3E7406B74
:103E7000E1E7F8B5044690F83900069DC0B2022883
:103E800016460F461A462BD094F83900C0B20128C6
:103E900004D103B925BB022384F83930B6F5006F8D
:103EA00021682ED01DD8B6F5007F25D0B6F5806FDD
:103EB00025D0B6F5807F09D1E069164BC363164B58
:103EC000C3642B0A01334C31FFF7CAF823683D4322
:103ED0009D64DA681643DE60012384F839300020DF
:103EE000F8BDB6F5005F0ED0B6F5804F0ED0B6F532
:103EF000805FEBD1E06A00E0206A084BDEE7606A91
:103F0000FBE7A06AF9E7206B054BD7E7606B054B31
:103F1000D4E700BF5142000837440008654200085A
:103F2000EF57000825440008FFF774BF90F83830B9
:103F3000012B4FF0020309D080F839300368596132
:103F4000012380F83930002380F838301846704754
:103F500090F83830012B70B54FF002032BD080F869
:103F600039304B680124A34280F838400BD1D1E9A5
:103F7000026305683343AC680E6924F47F4443EA66
:103F800006232343AB600C2A0FD8DFE802F0070EAC
:103F90000E0E1A0E0E0E250E0E0E31000A68036864
:103FA0005AB19A6942F080029A61012380F839304F
:103FB000002380F83830184670BD9A6922F08002DC
:103FC000F2E70A6803681AB19A6942F40042EBE723
:103FD0009A6922F40042E7E70A68036822B1DA69C5
:103FE00042F08002DA61E0E7DA6922F08002F9E764
:103FF0000A6803681AB1DA6942F40042F2E7DA6942
:1040000022F40042EEE790F83830012B70B54FF003
:1040100002031CD080F839300368012280F8382070
:104020009A6822F47F4222F077029A600A68402A56
:1040300079D019D8102A00F093800AD8002A00F00D
:104040008980012380F83930002380F83830184601
:1040500070BD202A00F08A80302AF2D19A6822F0BE
:10406000700242F0370236E0702A36D01BD8502A50
:1040700042D0602AE5D11C6A4D68CE6824F0100455
:104080001C6299691A6A21F4704122F0A00242EA86
:10409000051241EA063199611A629A6822F07002AB
:1040A00042F0670217E0B2F5805F11D0B2F5005F11
:1040B000C7D1D1E901529C68C9682A4324F47F44DE
:1040C00042EA012222439A609A6842F4804202E066
:1040D0009A6822F007029A60B3E7D1E901529C681E
:1040E000C9682A4324F47F4442EA012222439A60A9
:1040F0009A6842F07702EEE74C68CE68196A1D6A4A
:1041000025F001051D629A6921F00A0122F0F002F2
:1041100042EA061221439A6119629A6822F07002FB
:1041200042F05702D7E74C68CE68196A1D6A25F03D
:1041300001051D629A6921F00A0122F0F00242EAAB
:10414000061221439A6119629A6822F0700242F0C5
:104150004702C0E79A6822F0700242F00702BAE70D
:104160009A6822F0700242F01702B4E79A6822F0CF
:10417000700242F02702AEE70268536823F0800322
:10418000194351600020704738B590F83830012B42
:1041900004464FF0020315D0012580F8393080F82D
:1041A0003850FFF70FFA2368DA6822F04002DA602D
:1041B000DA68002022F48042DA6084F8395084F80A
:1041C000380038BD1846FCE738B590F83830012B78
:1041D00004464FF0020315D0012580F8393080F8ED
:1041E0003850FFF7EFF92368DA6842F04002DA60EE
:1041F000DA68002022F48042DA6084F8395084F8CA
:10420000380038BD1846FCE790F83830012B1CD038
:104210000C2918D8DFE801F0071717170E17171722
:1042200011171717140003685B6B002280F8382001
:104230001846704703689B6BF7E70368DB6BF4E78E
:1042400003681B6CF1E70023EFE70223F0E77047F8
:1042500008B5806B012380F83930FFF7F8FF08BDFF
:104260007047704710B5846B226A0123824284F83C
:10427000393006D123762046FFF7F3FF002323765B
:1042800010BD636A834201D10223F3E7A36A83422C
:1042900001D10423EEE7E36A8342ECD10823E9E786
:1042A000704710B5846B226A0123824284F839304A
:1042B00006D123762046FFF7F3FF0023237610BDB7
:1042C000636A834201D10223F3E7A36A834201D1E7
:1042D0000423EEE7E36A8342ECD10823E9E7704761
:1042E00003681A69910710B504460ED5DA6892077B
:1042F0000BD56FF002021A619B6901229B070276BF
:1043000077D0FFF7AEFF0023237623681A695007A2
:1043100010D5DA6851070DD56FF004021A619B6958
:10432000022213F4407F2276204668D0FFF799FFDF
:104330000023237623681A6912070FD5DA6810075D
:104340000CD56FF008021A61DB6904229907227606
:1043500020465AD0FFF785FF0023237623681A6989
:10436000D20610D5DA68D0060DD56FF010021A61AA
:10437000DB69082213F4407F227620464BD0FFF7FA
:1043800070FF0023237623681A69D10708D5DA68FD
:10439000D20705D56FF001021A612046FFF757FFDB
:1043A00023681A69100608D5DA68110605D56FF07A
:1043B00080021A61204601F022FA23681A69520627
:1043C00008D5DA68500605D56FF040021A6120461C
:1043D000FFF785FF23681A69910622D5DA689206ED
:1043E0001FD56FF0200220461A61BDE8104001F091
:1043F000FDB9FFF735FF2046FFF752FF83E7FFF7D0
:104400002FFF2046FFF74CFF92E7FFF729FF2046DA
:10441000FFF746FFA0E7FFF723FF2046FFF740FF27
:10442000AFE710BD08B5806B012380F83930FFF786
:1044300056FF08BD704708B5806B012380F83930FE
:10444000FFF7F8FF08BD90F83900704790F8390081
:10445000704790F83900704790F83900704790F82D
:104460003900704790F8390070472E4A036890422F
:1044700012D0B0F1804F0FD0A2F57C4290420BD009
:1044800002F58062904207D002F58062904203D02C
:1044900002F57842904219D14A6823F07003134321
:1044A000204A904229D0B0F1804F26D0A2F57C421C
:1044B000904222D002F5806290421ED002F58062C6
:1044C00090421AD002F57842904216D0164A904295
:1044D00013D002F5806290420FD002F580629042C4
:1044E0000BD0A2F59832904207D002F5806290423C
:1044F00003D002F58062904203D1CA6823F440736E
:10450000134303608B68C3620B688362054B984258
:1045100003D003F58063984201D10B690363012343
:1045200043617047000001400040014010B504465F
:10453000A0B190F8393003F0FF021BB980F83820A1
:10454000FFF795F8022384F839302068211DFFF722
:104550008CFF012384F83930002010BD0120FCE7D6
:1045600010B50446A0B190F8393003F0FF021BB932
:1045700080F83820FFF720F9022384F839302068CA
:10458000211DFFF772FF012384F83930002010BD90
:104590000120FCE710B50446A0B190F8393003F0D3
:1045A000FF021BB980F83820FFF725F9022384F8B1
:1045B00039302068211DFFF758FF012384F8393076
:1045C000002010BD0120FCE710B50446A0B190F812
:1045D000393003F0FF021BB980F83820FFF72AF9C1
:1045E000022384F839302068211DFFF73EFF0123A4
:1045F00084F83930002010BD0120FCE738B50D46A5
:104600000446E0B190F8393003F0FF021BB980F89E
:104610003820FFF72EF9022384F83930211D206855
:10462000FFF723FF23681A6822F008021A6019684E
:1046300029431960012384F83930002038BD012056
:10464000FCE7F8B50C460546002841D090F8393013
:1046500003F0FF021BB980F83820FFF7E1F9294683
:10466000022351F8040B85F83930836823F00703DF
:104670008360FFF7FAFE2868236886688269A1686C
:10468000076A1E43A36922F4407222F0030241EA42
:104690000323134323F47C422369E1691B0143EAAA
:1046A0000123E1680B43216A22F0FC0243EA013353
:1046B0001343616927F0AA026768866047EA011719
:1046C000836117430123076285F839300020F8BD64
:1046D0000120FCE770B5046A1A4E24F0010404625C
:1046E0008469056AB04224F0030429D0B0F1804FF8
:1046F00026D0A6F57C46B04222D006F58066B042B0
:104700001ED006F58066B0421AD006F57846B04253
:1047100016D006F57056B04212D0A6F59436B042C7
:104720000ED044F001021B01DBB222F0F0021A436A
:1047300001F00A0125F00A0319438261016270BD8C
:104740002243F0E700000140F8B590F83830012B23
:1047500004460D4617464FF002001AD0012384F894
:10476000383084F83900D1E900122068EB688FB93D
:10477000FFF7B0FF2368A9689A6922F00C029A61DA
:104780009A690A439A610123002084F8393084F839
:104790003800F8BD042FAE68056A1ED125F010055B
:1047A00005628569076A25F4407545EA02221B0304
:1047B0009BB222F4704209011A4301F0A00127F0D4
:1047C000A003194382610162836923F4406383611A
:1047D000836943EA06268661D5E7082F1CD125F4B4
:1047E00080750562C569076A25F003052A431B0128
:1047F000DBB222F0F00209021A4301F4206127F42F
:1048000020631943C2610162C36923F00C03C361D1
:10481000C3691E43C661B6E725F480550562C569C4
:10482000076A25F4407545EA02221B0322F4704210
:104830009BB20903134301F4204127F420421143A2
:10484000C3610162C36923F44063C361C36943EA7E
:104850000626DFE7036A23F010030362036A70B5DC
:10486000446882690D6822F4E64242EA05228D68B6
:1048700023F0200343EA05130D4DA84203D005F5AC
:104880008065A8420DD1CD6823F0800343EA05136B
:10489000D1E9055624F44064354323F0400344EA4B
:1048A0008504446082614A688263036270BD00BF10
:1048B0000000014038B590F83830012B04464FF025
:1048C000020018D0012384F8383084F839001D46DE
:1048D0000C2A0BD8DFE802F0070A0A0A100A0A0AB3
:1048E000140A0A0A18002068FEF7ECFD002084F87C
:1048F000395084F8380038BD2068FFF7ABFFF5E782
:104900002068FEF70BFEF1E72068FEF735FEEDE7C5
:1049100038B590F83830012B04464FF0020025D00E
:10492000012384F8383084F839000C2A18D8DFE8DD
:1049300002F0071717171E1717172F171717400022
:104940002068FEF7BFFD236809699A6942F00802F2
:104950009A619A6922F004029A619A690A439A61FB
:104960000123002084F8393084F8380038BD2068ED
:10497000FFF770FF236809699A6942F400629A613F
:104980009A6922F480629A619A6942EA0122E6E712
:104990002068FEF7C3FD23680969DA6942F008025E
:1049A000DA61DA6922F00402DA61DA690A43DA616B
:1049B000D6E72068FEF7E0FD23680969DA6942F46A
:1049C0000062DA61DA6922F48062DA61DA6942EA65
:1049D0000122ECE770B59A4288B005460C461E46A7
:1049E00071D090F83830012B4FF002001CD0012319
:1049F00085F838300B6801934B6802938B680393FA
:104A0000CB6804930B6906934B6985F839000793CB
:104A100062B1042A0FD09EB1042E2DD001230020B4
:104A200085F8393085F8380008B070BD01A92868CC
:104A3000FEF748FDEFE701A92868FFF70BFFEAE75B
:104A4000D4E90723A1692868FFF744FE2B689A6917
:104A500022F00C029A619A6822F070029A609A68B9
:104A600042F050029A609A6822F007029A609A68AF
:104A700042F006029A60D1E72B68216AD4E9062643
:104A80001C6A24F010041C6298691C6A20F44070AF
:104A900040EA0620090320F4704089B21201014364
:104AA00002F0A00224F0A000024399611A629A6900
:104AB00022F440629A619A6822F070029A609A68C1
:104AC00042F06002CEE70120AEE7036A10B5012490
:104AD0008C4023EA04030362036A8A401A43026299
:104AE00010BD10B5044601220068FFF7EEFF2368F1
:104AF000084A934203D002F58062934203D15A6C74
:104B000042F400425A641A6842F001021A6000201E
:104B100010BD00BF00000140FFF7E3BF10B5044621
:104B200000220068FFF7D1FF2368124A934203D0A6
:104B300002F5806293420DD1196A41F211121142BD
:104B400008D1196A40F24442114202BF5A6C22F461
:104B500000425A64196A41F21112114208D1196ACD
:104B600040F24442114202BF1A6822F001021A6068
:104B7000002010BD0000014010B5044600680C295B
:104B80000CD8DFE801F0070B0B0B200B0B0B240BF1
:104B90000B0B2800C36843F00203C3600122FFF738
:104BA00094FF23680E4A934203D002F58062934239
:104BB00003D15A6C42F400425A641A6842F001026E
:104BC0001A60002010BDC36843F00403E5E7C36822
:104BD00043F00803E1E7C36843F01003DDE700BFDB
:104BE00000000140FFF7C8BF10B5044600680C295B
:104BF0000CD8DFE801F0070B0B0B340B0B0B380B59
:104C00000B0B3C00C36823F00203C3600022FFF7D4
:104C10005CFF2368184A934203D002F580629342F6
:104C20000DD1196A41F21112114208D1196A40F2EC
:104C30004442114202BF5A6C22F400425A64196A7B
:104C400041F21112114208D1196A40F24442114254
:104C500002BF1A6822F001021A60002010BDC3686A
:104C600023F00403D1E7C36823F00803CDE7C3684A
:104C700023F01003C9E700BF00000140FFF7B4BFF5
:104C800070B5044690F83900C0B202280D461146AE
:104C900039D094F83900C0B2012805D10AB9002BE7
:104CA00031D1022284F8392022680C2D15D8DFE892
:104CB00005F0071414142B1414143814141445009C
:104CC000206A254EC663254EC6643432FEF7C8F905
:104CD0002268D36843F40073D36001222946206818
:104CE000FFF7F3FE23681E4A934203D002F5806269
:104CF000934203D15A6C42F400425A641A6842F05B
:104D000001021A60002070BD606A134EC663134E24
:104D1000C6643832FEF7A4F92268D36843F480638E
:104D2000DAE7A06A0C4EC6630C4EC6643C32FEF74E
:104D300097F92268D36843F40063CDE7E06A064E32
:104D4000C663064EC6644032FEF78AF92268D3680D
:104D500043F48053C0E700BFA34200083744000873
:104D600000000140FFF78CBF10B5044600680C2915
:104D70000CD8DFE801F0070B0B0B370B0B0B3B0BD1
:104D80000B0B3F00C36823F40073C3600022FFF7DE
:104D90009CFE2368194A934203D002F58062934235
:104DA0000DD1196A41F21112114208D1196A40F26B
:104DB0004442114202BF5A6C22F400425A64196AFA
:104DC00041F21112114208D1196A40F244421142D3
:104DD00002BF1A6822F001021A60012384F83930F8
:104DE000002010BDC36823F48063CEE7C36823F4BA
:104DF0000063CAE7C36823F48053C6E7000001409C
:104E0000FFF7B2BF10B5044600220068FFF75DFE51
:104E10002368144A934203D002F5806293420DD175
:104E2000196A41F21112114208D1196A40F2444242
:104E3000114202BF5A6C22F400425A64196A41F2CC
:104E40001112114208D1196A40F24442114202BFC4
:104E50001A6822F001021A60012384F83930002018
:104E600010BD00BF0000014010B5044601220068DB
:104E7000FFF72BFE2268136843F001031360002044
:104E800010BD10B5044600220068FFF71EFE23681F
:104E9000196A41F21112114208D1196A40F24442D2
:104EA000114202BF1A6822F001021A60002010BDF0
:104EB00010B5044600680C290CD8DFE801F0070B98
:104EC0000B0B150B0B0B190B0B0B1D00C36843F0E1
:104ED0000203C3600122FFF7F8FD2268136843F064
:104EE00001031360002010BDC36843F00403F0E722
:104EF000C36843F00803ECE7C36843F01003E8E736
:104F000010B5044600680C290CD8DFE801F0070B47
:104F10000B0B1F0B0B0B230B0B0B2700C36823F092
:104F20000203C3600022FFF7D0FD2368196A41F233
:104F30001112114208D1196A40F24442114202BFD3
:104F40001A6822F001021A60002010BDC36823F025
:104F50000403E6E7C36823F00803E2E7C36823F02D
:104F60001003DEE770B5044690F83900C0B202289D
:104F70000D462DD094F83900C0B2012804D102B9F1
:104F800033BB022184F8391021680C2D15D8DFE8D5
:104F900005F007141414201414142D1414143A00DA
:104FA000206A1F4EC6631F4EC6643431FEF758F8A0
:104FB0002268D36843F40073D36001222068294635
:104FC000FFF783FD2268136843F00103136000209C
:104FD00070BD606A124EC663124EC6643831FEF769
:104FE0003FF82268D36843F48063E5E7A06A0C4E7B
:104FF000C6630C4EC6643C31FEF732F82268D368B3
:1050000043F40063D8E7E06A054EC663054EC66404
:105010004031FEF725F82268D36843F48053CBE78C
:10502000654200083744000810B5044600680C29A2
:105030000CD8DFE801F0070B0B0B220B0B0B260B38
:105040000B0B2A00C36823F40073C3600022FFF730
:105050003CFD2368196A41F21112114208D1196A04
:1050600040F24442114202BF1A6822F001021A6063
:10507000012384F83930002010BDC36823F4806315
:10508000E3E7C36823F40063DFE7C36823F48053D6
:10509000DBE700BF036A10B504248C4023EA040355
:1050A0000362036A8A401A43026210BD704770B5FA
:1050B0000E4688B00546002847D0022380F83930D4
:1050C000FFF7F4FF291D2868FFF7CFF9B3683168AF
:1050D00028680322FFF7FEFA28687268836923F0C4
:1050E0000C038361836913438361436843F0800346
:1050F0004360836823F070038360836843F0400358
:105100008360836823F007038360836843F00403AC
:10511000836070230024019301A9F3680293CDE911
:1051200005440794CDE90344FFF794FB2B685A68C4
:1051300022F070025A605A6842F050025A6001230D
:1051400085F83930204608B070BD0120FBE7704774
:10515000022310B580F839300368196A41F2111240
:105160001142044608D1196A40F24442114202BF7A
:105170001A6822F001021A602046FFF7E8FF0020BB
:1051800084F8390084F8380010BD10B504460122B7
:1051900000210068FFF799FC2268136843F00103BF
:1051A0001360002010BD002210B5044611460068AF
:1051B000FFF78BFC2368196A41F21112114208D1E2
:1051C000196A40F24442114202BF1A6822F00102F9
:1051D0001A60002010BD10B504460068C36843F093
:1051E0000203C36001220021FFF76FFC22681368ED
:1051F00043F001031360002010BD002210B50446E7
:1052000011460068FFF761FC2368DA6822F00202A9
:10521000DA60196A41F21112114208D1196A40F29A
:105220004442114202BF1A6822F001021A600020B3
:1052300010BD70B5044690F83900C0B202280D4682
:10524000164623D094F83900C0B2012804D101B920
:10525000E2B9022384F83930012200212068FFF7E7
:1052600034FC206A0A4B2168C3630A4BC3642A4694
:1052700033463431FDF7F4FE2368DA6842F40072F5
:10528000DA601A6842F001021A60002070BD00BFA7
:105290006542000837440008002210B50446114654
:1052A0000068FFF712FC2368DA6822F40072DA6003
:1052B000196A41F21112114208D1196A40F24442AE
:1052C000114202BF1A6822F001021A60002010BDCC
:1052D00010B5044604220068FFF7DCFE23685A6C10
:1052E00042F400425A641A6842F001021A60002037
:1052F00010BD10B5044600220068FFF7CBFE2368FE
:10530000196A41F21112114208D1196A40F244425D
:10531000114202BF5A6C22F400425A64196A41F2E7
:105320001112114208D1196A40F24442114202BFDF
:105330001A6822F001021A60002010BD10B5044660
:1053400000680C290CD8DFE801F0070B0B0B1D0BD4
:105350000B0B210B0B0B2500C36843F00203C3604A
:10536000C36843F08003C3600422FFF793FE236801
:105370005A6C42F400425A641A6842F001021A6000
:10538000002010BDC36843F00403E8E7C36843F09E
:105390000803E4E7C36843F01003E0E710B50446F0
:1053A00000680C290CD8DFE801F0070B0B0B360B5B
:1053B0000B0B3A0B0B0B3E00C36823F00203C360D8
:1053C0000022FFF767FE2368196A40F24442114247
:1053D00002BFDA6822F08002DA60196A41F2111223
:1053E000114208D1196A40F24442114202BF5A6C7C
:1053F00022F400425A64196A41F21112114208D192
:10540000196A40F24442114202BF1A6822F00102B6
:105410001A60002010BDC36823F00403CFE7C368FF
:1054200023F00803CBE7C36823F01003C7E770B588
:10543000044690F83900C0B202280D46114631D01A
:1054400094F83900C0B2012804D102B953BB02223A
:1054500084F8392022680C2D15D8DFE805F00714F0
:10546000141424141414311414143E00206A214E10
:10547000C663214EC6643432FDF7F2FD2268D3685C
:1054800043F40073D360042220682946FFF702FE2C
:1054900023685A6C42F400425A641A6842F00102CE
:1054A0001A60002070BD606A124EC663124EC66458
:1054B0003832FDF7D5FD2268D36843F48063E1E715
:1054C000A06A0C4EC6630C4EC6643C32FDF7C8FDA4
:1054D0002268D36843F40063D4E7E06A054EC663EC
:1054E000054EC6644032FDF7BBFD2268D36843F425
:1054F0008053C7E7A34200083744000810B50446AC
:1055000000680C290CD8DFE801F0070B0B0B300BFF
:105510000B0B340B0B0B3800C36823F40073C36010
:105520000022FFF7B7FD2368196A41F211121142F8
:1055300008D1196A40F24442114202BF5A6C22F467
:1055400000425A64196A41F21112114208D1196AD3
:1055500040F24442114202BF1A6822F001021A606E
:10556000012384F83930002010BDC36823F4806320
:10557000D5E7C36823F40063D1E7C36823F48053FD
:10558000CDE7FFF7A5BEFFF7B4BEFFF7D7BEFFF725
:1055900005BFFFF74CBFFFF7B1BF10B504460422AB
:1055A0000068FFF777FD2268536C43F400435364AF
:1055B000002010BDFFF79DBE10B504460068C3680B
:1055C00043F00203C360C36843F00403C3600422D2
:1055D000FFF760FD2268536C43F4004353640020DE
:1055E00010BD10B504460068C36823F00203C36011
:1055F000C36823F00403C3600022FFF74BFD236858
:10560000196A41F21112114208D1196A40F244425A
:10561000114202BF5A6C22F400425A64196A41F2E4
:105620001112114208D1196A40F24442114202BFDC
:105630001A6822F001021A60002010BD90F838307C
:10564000012B10B51DD0012380F8383031F0300324
:10565000036806D19C6824F070049C609C68214318
:105660009960596841F001015960596821F00401BD
:10567000596059680A435A60002380F83830184648
:1056800010BD0220FCE790F83830012B10B521D076
:10569000012380F8383031F03003036806D19C686C
:1056A00024F070049C609C6821439960596841F023
:1056B00001015960596821F00401596059680A4391
:1056C0005A60DA6842F02002DA60002380F838304D
:1056D000184610BD0220FCE790F83830012B10B5B9
:1056E00026D0012380F8383031F03003036806D12A
:1056F0009C6824F070049C609C6821439960596800
:1057000041F001015960596821F00401596059685C
:105710000A435A60026B0749D1630749D164DA68CA
:1057200042F40052DA60002380F83830184610BD89
:105730000220FCE7EF5700083744000890F83830A3
:10574000012B10B54FF0020318D080F839300368F0
:105750000C685A68496822F070025A605A682243FD
:105760005A609A6822F080029A609A680A439A60A6
:10577000012380F83930002380F83830184610BDF6
:1057800090F83830012B1FD0CB688A6823F440731F
:1057900013434A6823F4806313430A6823F40063C5
:1057A00013430A6923F4805313434A6923F40053D3
:1057B00013438A6923F4404313430268536400236C
:1057C00080F83830184670470220704790F838301B
:1057D000012B1FBF03681965012380F839301DBFF5
:1057E000002380F83830184602207047704708B50B
:1057F000806B012380F83930FFF7F8FF08BD704750
:1058000090F83900704700BF0368DA6822F490729C
:10581000DA605A6922F001025A61202380F83A3096
:1058200070472DE9F8430368C1681A69044622F4F9
:1058300040520A431A612569A268D968C0692A439F
:10584000656921F416412A4321F00C0102430A4301
:10585000DA605A69A16922F440720A43B0F5004F38
:105860005A617A4A7BD1934203D002F58062934217
:1058700044D1FBF75FFF676819254FF0640805FB0B
:1058800000F37F00B3FBF7F3B3FBF8F31F01FBF763
:1058900051FF636868435B00B0FBF3F6FBF74AFF18
:1058A000636868435B00B0FBF3F3B3FBF8F308FBFA
:1058B0001363DB003233B3FBF8F35B0003F4F876D9
:1058C000FBF738FF626868435200B0FBF2F9FBF760
:1058D00031FF6368226868435B00B0FBF3F3B3FBFE
:1058E000F8F308FB1393DB003233B3FBF8F303F058
:1058F00007033B4433449360BDE8F883FBF70AFF9A
:10590000676819254FF0640805FB00F37F00B3FBBF
:10591000F7F3B3FBF8F31F01FBF7FCFE6368684382
:105920005B00B0FBF3F6FBF7F5FE636868435B00D2
:10593000B0FBF3F3B3FBF8F308FB1363DB00323384
:10594000B3FBF8F35B0003F4F876FBF7E3FE626861
:1059500068435200B0FBF2F9FBF7DCFEB9E7934273
:1059600002D03B4A934241D1FBF7E4FE6768192518
:105970004FF0640805FB00F3BF00B3FBF7F3B3FB84
:10598000F8F31F01FBF7D6FE636868439B00B0FB8A
:10599000F3F6FBF7CFFE636868439B00B0FBF3F3BD
:1059A000B3FBF8F308FB13631B013233B3FBF8F3CB
:1059B00003F0F006FBF7BEFE626868439200B0FB9E
:1059C000F2F9FBF7B7FE6368226868439B00B0FBFF
:1059D000F3F3B3FBF8F308FB13931B013233B3FB70
:1059E000F8F303F00F0333433B4484E7FBF792FEE5
:1059F000676819254FF0640805FB00F3BF00B3FB8F
:105A0000F7F3B3FBF8F31F01FBF784FE6368684309
:105A10009B00B0FBF3F6FBF77DFE636868439B00D9
:105A2000B0FBF3F3B3FBF8F308FB13631B01323352
:105A3000B3FBF8F303F0F006FBF76CFE6268684313
:105A40009200B0FBF2F9FBF765FEBCE700100140E5
:105A500000140140F8B504460E4617461D4621685D
:105A60000B6836EA030301D1002014E06B1CF7D069
:105A700095B92368DA6822F4D072DA605A6922F0A4
:105A800001025A61202384F8393084F83A30002327
:105A900084F838300320F8BDFBF71EFBC01B85429D
:105AA000DDD2E6E7704710B5044640B390F83930D0
:105AB00003F0FF021BB980F83820FFF7F3FF2268DC
:105AC000242384F83930D36823F40053D36020466C
:105AD000FFF7A7FE23681A6922F490421A615A69F7
:105AE00022F02A025A61DA6842F40052DA60002099
:105AF0002023E06384F8393084F83A3010BD012067
:105B0000FCE710B5044660B390F8393003F0FF02AB
